{
  "address": "0x5FbDB2315678afecb367f032d93F642f64180aa3",
  "abi": [
    {
      "inputs": [],
      "stateMutability": "nonpayable",
      "type": "constructor"
    },
    {
      "inputs": [],
      "name": "NotDoctor",
      "type": "error"
    },
    {
      "inputs": [],
      "name": "NotOwner",
      "type": "error"
    },
    {
      "inputs": [
        {
          "internalType": "string",
          "name": "",
          "type": "string"
        }
      ],
      "name": "aadhaarToAddress",
      "outputs": [
        {
          "internalType": "address",
          "name": "",
          "type": "address"
        }
      ],
      "stateMutability": "view",
      "type": "function"
    },
    {
      "inputs": [
        {
          "internalType": "string",
          "name": "",
          "type": "string"
        }
      ],
      "name": "aadhaarToPatientId",
      "outputs": [
        {
          "internalType": "string",
          "name": "",
          "type": "string"
        }
      ],
      "stateMutability": "view",
      "type": "function"
    },
    {
      "inputs": [
        {
          "internalType": "string",
          "name": "_aadhaar",
          "type": "string"
        },
        {
          "internalType": "string",
          "name": "_diagnosis",
          "type": "string"
        },
        {
          "internalType": "string",
          "name": "_treatment",
          "type": "string"
        },
        {
          "internalType": "string",
          "name": "_remarks",
          "type": "string"
        }
      ],
      "name": "addPrescription",
      "outputs": [],
      "stateMutability": "nonpayable",
      "type": "function"
    },
    {
      "inputs": [
        {
          "internalType": "address",
          "name": "",
          "type": "address"
        }
      ],
      "name": "doctorLicenses",
      "outputs": [
        {
          "internalType": "string",
          "name": "",
          "type": "string"
        }
      ],
      "stateMutability": "view",
      "type": "function"
    },
    {
      "inputs": [
        {
          "internalType": "string",
          "name": "",
          "type": "string"
        }
      ],
      "name": "doctors",
      "outputs": [
        {
          "internalType": "string",
          "name": "doctorId",
          "type": "string"
        },
        {
          "internalType": "string",
          "name": "licenseNumber",
          "type": "string"
        },
        {
          "internalType": "string",
          "name": "name",
          "type": "string"
        },
        {
          "internalType": "string",
          "name": "specialization",
          "type": "string"
        },
        {
          "internalType": "uint256",
          "name": "hospitalId",
          "type": "uint256"
        }
      ],
      "stateMutability": "view",
      "type": "function"
    },
    {
      "inputs": [],
      "name": "getMyPrescriptions",
      "outputs": [
        {
          "components": [
            {
              "internalType": "uint256",
              "name": "prescriptionId",
              "type": "uint256"
            },
            {
              "internalType": "string",
              "name": "patientId",
              "type": "string"
            },
            {
              "internalType": "string",
              "name": "doctorId",
              "type": "string"
            },
            {
              "internalType": "string",
              "name": "issueDate",
              "type": "string"
            },
            {
              "internalType": "string",
              "name": "diagnosis",
              "type": "string"
            },
            {
              "internalType": "string",
              "name": "treatment",
              "type": "string"
            },
            {
              "internalType": "string",
              "name": "remarks",
              "type": "string"
            }
          ],
          "internalType": "struct Medlock.Prescription[]",
          "name": "",
          "type": "tuple[]"
        }
      ],
      "stateMutability": "view",
      "type": "function"
    },
    {
      "inputs": [],
      "name": "getMyProfile",
      "outputs": [
        {
          "internalType": "string",
          "name": "patientId",
          "type": "string"
        },
        {
          "internalType": "string",
          "name": "name",
          "type": "string"
        },
        {
          "internalType": "string",
          "name": "dob",
          "type": "string"
        },
        {
          "internalType": "string",
          "name": "contactDetails",
          "type": "string"
        }
      ],
      "stateMutability": "view",
      "type": "function"
    },
    {
      "inputs": [
        {
          "internalType": "uint256",
          "name": "",
          "type": "uint256"
        }
      ],
      "name": "hospitalById",
      "outputs": [
        {
          "internalType": "address",
          "name": "",
          "type": "address"
        }
      ],
      "stateMutability": "view",
      "type": "function"
    },
    {
      "inputs": [
        {
          "internalType": "address",
          "name": "",
          "type": "address"
        }
      ],
      "name": "hospitals",
      "outputs": [
        {
          "internalType": "uint256",
          "name": "hospitalId",
          "type": "uint256"
        },
        {
          "internalType": "string",
          "name": "name",
          "type": "string"
        },
        {
          "internalType": "bool",
          "name": "isRegistered",
          "type": "bool"
        }
      ],
      "stateMutability": "view",
      "type": "function"
    },
    {
      "inputs": [
        {
          "internalType": "address",
          "name": "_wallet",
          "type": "address"
        }
      ],
      "name": "isDoctorRegistered",
      "outputs": [
        {
          "internalType": "bool",
          "name": "",
          "type": "bool"
        }
      ],
      "stateMutability": "view",
      "type": "function"
    },
    {
      "inputs": [
        {
          "internalType": "address",
          "name": "_hospitalAddress",
          "type": "address"
        }
      ],
      "name": "isHospitalRegistered",
      "outputs": [
        {
          "internalType": "bool",
          "name": "",
          "type": "bool"
        }
      ],
      "stateMutability": "view",
      "type": "function"
    },
    {
      "inputs": [
        {
          "internalType": "string",
          "name": "_aadhaar",
          "type": "string"
        }
      ],
      "name": "isPatientRegistered",
      "outputs": [
        {
          "internalType": "bool",
          "name": "",
          "type": "bool"
        }
      ],
      "stateMutability": "view",
      "type": "function"
    },
    {
      "inputs": [
        {
          "internalType": "string",
          "name": "",
          "type": "string"
        }
      ],
      "name": "licenseToDoctorId",
      "outputs": [
        {
          "internalType": "string",
          "name": "",
          "type": "string"
        }
      ],
      "stateMutability": "view",
      "type": "function"
    },
    {
      "inputs": [],
      "name": "nextDoctorId",
      "outputs": [
        {
          "internalType": "uint256",
          "name": "",
          "type": "uint256"
        }
      ],
      "stateMutability": "view",
      "type": "function"
    },
    {
      "inputs": [],
      "name": "nextHospitalId",
      "outputs": [
        {
          "internalType": "uint256",
          "name": "",
          "type": "uint256"
        }
      ],
      "stateMutability": "view",
      "type": "function"
    },
    {
      "inputs": [],
      "name": "nextPatientId",
      "outputs": [
        {
          "internalType": "uint256",
          "name": "",
          "type": "uint256"
        }
      ],
      "stateMutability": "view",
      "type": "function"
    },
    {
      "inputs": [],
      "name": "nextPrescriptionId",
      "outputs": [
        {
          "internalType": "uint256",
          "name": "",
          "type": "uint256"
        }
      ],
      "stateMutability": "view",
      "type": "function"
    },
    {
      "inputs": [],
      "name": "owner",
      "outputs": [
        {
          "internalType": "address",
          "name": "",
          "type": "address"
        }
      ],
      "stateMutability": "view",
      "type": "function"
    },
    {
      "inputs": [
        {
          "internalType": "address",
          "name": "",
          "type": "address"
        }
      ],
      "name": "patientAadhaars",
      "outputs": [
        {
          "internalType": "string",
          "name": "",
          "type": "string"
        }
      ],
      "stateMutability": "view",
      "type": "function"
    },
    {
      "inputs": [
        {
          "internalType": "string",
          "name": "",
          "type": "string"
        }
      ],
      "name": "patients",
      "outputs": [
        {
          "internalType": "string",
          "name": "patientId",
          "type": "string"
        },
        {
          "internalType": "string",
          "name": "aadhaar",
          "type": "string"
        },
        {
          "internalType": "string",
          "name": "name",
          "type": "string"
        },
        {
          "internalType": "string",
          "name": "dob",
          "type": "string"
        },
        {
          "internalType": "string",
          "name": "contactDetails",
          "type": "string"
        }
      ],
      "stateMutability": "view",
      "type": "function"
    },
    {
      "inputs": [
        {
          "internalType": "string",
          "name": "",
          "type": "string"
        },
        {
          "internalType": "uint256",
          "name": "",
          "type": "uint256"
        }
      ],
      "name": "prescriptions",
      "outputs": [
        {
          "internalType": "uint256",
          "name": "prescriptionId",
          "type": "uint256"
        },
        {
          "internalType": "string",
          "name": "patientId",
          "type": "string"
        },
        {
          "internalType": "string",
          "name": "doctorId",
          "type": "string"
        },
        {
          "internalType": "string",
          "name": "issueDate",
          "type": "string"
        },
        {
          "internalType": "string",
          "name": "diagnosis",
          "type": "string"
        },
        {
          "internalType": "string",
          "name": "treatment",
          "type": "string"
        },
        {
          "internalType": "string",
          "name": "remarks",
          "type": "string"
        }
      ],
      "stateMutability": "view",
      "type": "function"
    },
    {
      "inputs": [
        {
          "internalType": "address",
          "name": "_wallet",
          "type": "address"
        },
        {
          "internalType": "string",
          "name": "_licenseNumber",
          "type": "string"
        },
        {
          "internalType": "string",
          "name": "_name",
          "type": "string"
        },
        {
          "internalType": "string",
          "name": "_specialization",
          "type": "string"
        },
        {
          "internalType": "uint256",
          "name": "_hospitalId",
          "type": "uint256"
        }
      ],
      "name": "registerDoctor",
      "outputs": [],
      "stateMutability": "nonpayable",
      "type": "function"
    },
    {
      "inputs": [
        {
          "internalType": "address",
          "name": "_hospitalAddress",
          "type": "address"
        },
        {
          "internalType": "string",
          "name": "_name",
          "type": "string"
        }
      ],
      "name": "registerHospital",
      "outputs": [],
      "stateMutability": "nonpayable",
      "type": "function"
    },
    {
      "inputs": [
        {
          "internalType": "address",
          "name": "_wallet",
          "type": "address"
        },
        {
          "internalType": "string",
          "name": "_aadhaar",
          "type": "string"
        },
        {
          "internalType": "string",
          "name": "_name",
          "type": "string"
        },
        {
          "internalType": "string",
          "name": "_dob",
          "type": "string"
        },
        {
          "internalType": "string",
          "name": "_contactDetails",
          "type": "string"
        }
      ],
      "name": "registerPatient",
      "outputs": [],
      "stateMutability": "nonpayable",
      "type": "function"
    }
  ],
  "transactionHash": "0x815f45b839ab60976e8f243c0774f37cf07ce3b2ca22b6c2fde393d60fe88e3a",
  "args": [],
  "numDeployments": 1,
  "solcInputHash": "f4c425e6b7712be99d3575fbec45bd7b",
  "bytecode": "0x60806040526001805560016002556001600355600160045534801561002357600080fd5b50336000806101000a81548173ffffffffffffffffffffffffffffffffffffffff021916908373ffffffffffffffffffffffffffffffffffffffff160217905550614354806100736000396000f3fe608060405234801561001057600080fd5b50600436106101585760003560e01c806385ed30db116100c3578063bc84243e1161007c578063bc84243e14610410578063be528fbd14610440578063c6009d841461045c578063e18473fa14610490578063e24fb942146104c0578063f093cf80146104f057610158565b806385ed30db1461033a5780638c09e01d1461036a5780638da5cb5b146103865780638e21e579146103a45780639adbf315146103c2578063b1131795146103f257610158565b8063463b5fda11610115578063463b5fda146102405780634f10c6c21461025e5780634fbaa0231461028e57806378550390146102aa5780637a802e25146102da57806385958e0e1461030a57610158565b80630581ee821461015d57806305c35ce5146101795780631abb6926146101ad57806321527e50146101e357806331b3bac5146102045780633c94c9c714610222575b600080fd5b61017760048036038101906101729190612edc565b610522565b005b610193600480360381019061018e9190612fb3565b610a30565b6040516101a4959493929190613094565b60405180910390f35b6101c760048036038101906101c2919061312f565b610c9c565b6040516101da979695949392919061318b565b60405180910390f35b6101eb611041565b6040516101fb9493929190613224565b60405180910390f35b61020c611482565b6040516102199190613285565b60405180910390f35b61022a611488565b6040516102379190613285565b60405180910390f35b61024861148e565b604051610255919061347a565b60405180910390f35b61027860048036038101906102739190612fb3565b611a3c565b60405161028591906134b7565b60405180910390f35b6102a860048036038101906102a39190613530565b611ab3565b005b6102c460048036038101906102bf919061358c565b611cda565b6040516102d191906134b7565b60405180910390f35b6102f460048036038101906102ef9190612fb3565b611d32565b60405161030191906135b9565b60405180910390f35b610324600480360381019061031f919061358c565b611de8565b60405161033191906135b9565b60405180910390f35b610354600480360381019061034f91906135db565b611e88565b6040516103619190613617565b60405180910390f35b610384600480360381019061037f9190613632565b611ebb565b005b61038e612232565b60405161039b9190613617565b60405180910390f35b6103ac612256565b6040516103b99190613285565b60405180910390f35b6103dc60048036038101906103d7919061358c565b61225c565b6040516103e991906135b9565b60405180910390f35b6103fa6122fc565b6040516104079190613285565b60405180910390f35b61042a6004803603810190610425919061358c565b612302565b60405161043791906134b7565b60405180910390f35b61045a6004803603810190610455919061371d565b61235b565b005b61047660048036038101906104719190612fb3565b61262c565b6040516104879594939291906137ec565b60405180910390f35b6104aa60048036038101906104a59190612fb3565b612920565b6040516104b79190613617565b60405180910390f35b6104da60048036038101906104d59190612fb3565b612969565b6040516104e791906135b9565b60405180910390f35b61050a6004803603810190610505919061358c565b612a1f565b60405161051993929190613862565b60405180910390f35b6000600760003373ffffffffffffffffffffffffffffffffffffffff1673ffffffffffffffffffffffffffffffffffffffff168152602001908152602001600020805461056e906138cf565b80601f016020809104026020016040519081016040528092919081815260200182805461059a906138cf565b80156105e75780601f106105bc576101008083540402835291602001916105e7565b820191906000526020600020905b8154815290600101906020018083116105ca57829003601f168201915b505050505090506000815103610629576040517f54069c0700000000000000000000000000000000000000000000000000000000815260040160405180910390fd5b6000600760003373ffffffffffffffffffffffffffffffffffffffff1673ffffffffffffffffffffffffffffffffffffffff1681526020019081526020016000208054610675906138cf565b80601f01602080910402602001604051908101604052809291908181526020018280546106a1906138cf565b80156106ee5780601f106106c3576101008083540402835291602001916106ee565b820191906000526020600020905b8154815290600101906020018083116106d157829003601f168201915b505050505090506000600982604051610707919061393c565b90815260200160405180910390208054610720906138cf565b80601f016020809104026020016040519081016040528092919081815260200182805461074c906138cf565b80156107995780601f1061076e57610100808354040283529160200191610799565b820191906000526020600020905b81548152906001019060200180831161077c57829003601f168201915b50505050509050600073ffffffffffffffffffffffffffffffffffffffff16600b886040516107c8919061393c565b908152602001604051809103902060009054906101000a900473ffffffffffffffffffffffffffffffffffffffff1673ffffffffffffffffffffffffffffffffffffffff160361084d576040517f08c379a00000000000000000000000000000000000000000000000000000000081526004016108449061399f565b60405180910390fd5b6000600d8860405161085f919061393c565b90815260200160405180910390208054610878906138cf565b80601f01602080910402602001604051908101604052809291908181526020018280546108a4906138cf565b80156108f15780601f106108c6576101008083540402835291602001916108f1565b820191906000526020600020905b8154815290600101906020018083116108d457829003601f168201915b50505050509050600061090342612ade565b9050600e82604051610915919061393c565b90815260200160405180910390206040518060e0016040528060026000815480929190610941906139ee565b9190505581526020018481526020018581526020018381526020018a81526020018981526020018881525090806001815401808255809150506001900390600052602060002090600702016000909190919091506000820151816000015560208201518160010190816109b49190613be2565b5060408201518160020190816109ca9190613be2565b5060608201518160030190816109e09190613be2565b5060808201518160040190816109f69190613be2565b5060a0820151816005019081610a0c9190613be2565b5060c0820151816006019081610a229190613be2565b505050505050505050505050565b600881805160208101820180518482526020830160208501208183528095505050505050600091509050806000018054610a69906138cf565b80601f0160208091040260200160405190810160405280929190818152602001828054610a95906138cf565b8015610ae25780601f10610ab757610100808354040283529160200191610ae2565b820191906000526020600020905b815481529060010190602001808311610ac557829003601f168201915b505050505090806001018054610af7906138cf565b80601f0160208091040260200160405190810160405280929190818152602001828054610b23906138cf565b8015610b705780601f10610b4557610100808354040283529160200191610b70565b820191906000526020600020905b815481529060010190602001808311610b5357829003601f168201915b505050505090806002018054610b85906138cf565b80601f0160208091040260200160405190810160405280929190818152602001828054610bb1906138cf565b8015610bfe5780601f10610bd357610100808354040283529160200191610bfe565b820191906000526020600020905b815481529060010190602001808311610be157829003601f168201915b505050505090806003018054610c13906138cf565b80601f0160208091040260200160405190810160405280929190818152602001828054610c3f906138cf565b8015610c8c5780601f10610c6157610100808354040283529160200191610c8c565b820191906000526020600020905b815481529060010190602001808311610c6f57829003601f168201915b5050505050908060040154905085565b600e828051602081018201805184825260208301602085012081835280955050505050508181548110610cce57600080fd5b906000526020600020906007020160009150915050806000015490806001018054610cf8906138cf565b80601f0160208091040260200160405190810160405280929190818152602001828054610d24906138cf565b8015610d715780601f10610d4657610100808354040283529160200191610d71565b820191906000526020600020905b815481529060010190602001808311610d5457829003601f168201915b505050505090806002018054610d86906138cf565b80601f0160208091040260200160405190810160405280929190818152602001828054610db2906138cf565b8015610dff5780601f10610dd457610100808354040283529160200191610dff565b820191906000526020600020905b815481529060010190602001808311610de257829003601f168201915b505050505090806003018054610e14906138cf565b80601f0160208091040260200160405190810160405280929190818152602001828054610e40906138cf565b8015610e8d5780601f10610e6257610100808354040283529160200191610e8d565b820191906000526020600020905b815481529060010190602001808311610e7057829003601f168201915b505050505090806004018054610ea2906138cf565b80601f0160208091040260200160405190810160405280929190818152602001828054610ece906138cf565b8015610f1b5780601f10610ef057610100808354040283529160200191610f1b565b820191906000526020600020905b815481529060010190602001808311610efe57829003601f168201915b505050505090806005018054610f30906138cf565b80601f0160208091040260200160405190810160405280929190818152602001828054610f5c906138cf565b8015610fa95780601f10610f7e57610100808354040283529160200191610fa9565b820191906000526020600020905b815481529060010190602001808311610f8c57829003601f168201915b505050505090806006018054610fbe906138cf565b80601f0160208091040260200160405190810160405280929190818152602001828054610fea906138cf565b80156110375780601f1061100c57610100808354040283529160200191611037565b820191906000526020600020905b81548152906001019060200180831161101a57829003601f168201915b5050505050905087565b6060806060806000600a60003373ffffffffffffffffffffffffffffffffffffffff1673ffffffffffffffffffffffffffffffffffffffff1681526020019081526020016000208054611093906138cf565b80601f01602080910402602001604051908101604052809291908181526020018280546110bf906138cf565b801561110c5780601f106110e15761010080835404028352916020019161110c565b820191906000526020600020905b8154815290600101906020018083116110ef57829003601f168201915b505050505090506000815111611157576040517f08c379a000000000000000000000000000000000000000000000000000000000815260040161114e90613d00565b60405180910390fd5b6000600c82604051611169919061393c565b90815260200160405180910390206040518060a0016040529081600082018054611192906138cf565b80601f01602080910402602001604051908101604052809291908181526020018280546111be906138cf565b801561120b5780601f106111e05761010080835404028352916020019161120b565b820191906000526020600020905b8154815290600101906020018083116111ee57829003601f168201915b50505050508152602001600182018054611224906138cf565b80601f0160208091040260200160405190810160405280929190818152602001828054611250906138cf565b801561129d5780601f106112725761010080835404028352916020019161129d565b820191906000526020600020905b81548152906001019060200180831161128057829003601f168201915b505050505081526020016002820180546112b6906138cf565b80601f01602080910402602001604051908101604052809291908181526020018280546112e2906138cf565b801561132f5780601f106113045761010080835404028352916020019161132f565b820191906000526020600020905b81548152906001019060200180831161131257829003601f168201915b50505050508152602001600382018054611348906138cf565b80601f0160208091040260200160405190810160405280929190818152602001828054611374906138cf565b80156113c15780601f10611396576101008083540402835291602001916113c1565b820191906000526020600020905b8154815290600101906020018083116113a457829003601f168201915b505050505081526020016004820180546113da906138cf565b80601f0160208091040260200160405190810160405280929190818152602001828054611406906138cf565b80156114535780601f1061142857610100808354040283529160200191611453565b820191906000526020600020905b81548152906001019060200180831161143657829003601f168201915b505050505081525050905080600001518160400151826060015183608001519550955095509550505090919293565b60045481565b60015481565b60606000600a60003373ffffffffffffffffffffffffffffffffffffffff1673ffffffffffffffffffffffffffffffffffffffff16815260200190815260200160002080546114dc906138cf565b80601f0160208091040260200160405190810160405280929190818152602001828054611508906138cf565b80156115555780601f1061152a57610100808354040283529160200191611555565b820191906000526020600020905b81548152906001019060200180831161153857829003601f168201915b5050505050905060008151116115a0576040517f08c379a000000000000000000000000000000000000000000000000000000000815260040161159790613d00565b60405180910390fd5b6000600d826040516115b2919061393c565b908152602001604051809103902080546115cb906138cf565b80601f01602080910402602001604051908101604052809291908181526020018280546115f7906138cf565b80156116445780601f1061161957610100808354040283529160200191611644565b820191906000526020600020905b81548152906001019060200180831161162757829003601f168201915b50505050509050600e8160405161165b919061393c565b9081526020016040518091039020805480602002602001604051908101604052809291908181526020016000905b82821015611a3157838290600052602060002090600702016040518060e0016040529081600082015481526020016001820180546116c6906138cf565b80601f01602080910402602001604051908101604052809291908181526020018280546116f2906138cf565b801561173f5780601f106117145761010080835404028352916020019161173f565b820191906000526020600020905b81548152906001019060200180831161172257829003601f168201915b50505050508152602001600282018054611758906138cf565b80601f0160208091040260200160405190810160405280929190818152602001828054611784906138cf565b80156117d15780601f106117a6576101008083540402835291602001916117d1565b820191906000526020600020905b8154815290600101906020018083116117b457829003601f168201915b505050505081526020016003820180546117ea906138cf565b80601f0160208091040260200160405190810160405280929190818152602001828054611816906138cf565b80156118635780601f1061183857610100808354040283529160200191611863565b820191906000526020600020905b81548152906001019060200180831161184657829003601f168201915b5050505050815260200160048201805461187c906138cf565b80601f01602080910402602001604051908101604052809291908181526020018280546118a8906138cf565b80156118f55780601f106118ca576101008083540402835291602001916118f5565b820191906000526020600020905b8154815290600101906020018083116118d857829003601f168201915b5050505050815260200160058201805461190e906138cf565b80601f016020809104026020016040519081016040528092919081815260200182805461193a906138cf565b80156119875780601f1061195c57610100808354040283529160200191611987565b820191906000526020600020905b81548152906001019060200180831161196a57829003601f168201915b505050505081526020016006820180546119a0906138cf565b80601f01602080910402602001604051908101604052809291908181526020018280546119cc906138cf565b8015611a195780601f106119ee57610100808354040283529160200191611a19565b820191906000526020600020905b8154815290600101906020018083116119fc57829003601f168201915b50505050508152505081526020019060010190611689565b505050509250505090565b60008073ffffffffffffffffffffffffffffffffffffffff16600b83604051611a65919061393c565b908152602001604051809103902060009054906101000a900473ffffffffffffffffffffffffffffffffffffffff1673ffffffffffffffffffffffffffffffffffffffff1614159050919050565b60008054906101000a900473ffffffffffffffffffffffffffffffffffffffff1673ffffffffffffffffffffffffffffffffffffffff163373ffffffffffffffffffffffffffffffffffffffff1614611b38576040517f30cd747100000000000000000000000000000000000000000000000000000000815260040160405180910390fd5b600560008373ffffffffffffffffffffffffffffffffffffffff1673ffffffffffffffffffffffffffffffffffffffff16815260200190815260200160002060020160009054906101000a900460ff1615611bc8576040517f08c379a0000000000000000000000000000000000000000000000000000000008152600401611bbf90613d6c565b60405180910390fd5b6040518060600160405280600154815260200182815260200160011515815250600560008473ffffffffffffffffffffffffffffffffffffffff1673ffffffffffffffffffffffffffffffffffffffff168152602001908152602001600020600082015181600001556020820151816001019081611c469190613be2565b5060408201518160020160006101000a81548160ff0219169083151502179055509050508160066000600154815260200190815260200160002060006101000a81548173ffffffffffffffffffffffffffffffffffffffff021916908373ffffffffffffffffffffffffffffffffffffffff16021790555060016000815480929190611cd1906139ee565b91905055505050565b600080600760008473ffffffffffffffffffffffffffffffffffffffff1673ffffffffffffffffffffffffffffffffffffffff1681526020019081526020016000208054611d27906138cf565b905014159050919050565b6009818051602081018201805184825260208301602085012081835280955050505050506000915090508054611d67906138cf565b80601f0160208091040260200160405190810160405280929190818152602001828054611d93906138cf565b8015611de05780601f10611db557610100808354040283529160200191611de0565b820191906000526020600020905b815481529060010190602001808311611dc357829003601f168201915b505050505081565b600a6020528060005260406000206000915090508054611e07906138cf565b80601f0160208091040260200160405190810160405280929190818152602001828054611e33906138cf565b8015611e805780601f10611e5557610100808354040283529160200191611e80565b820191906000526020600020905b815481529060010190602001808311611e6357829003601f168201915b505050505081565b60066020528060005260406000206000915054906101000a900473ffffffffffffffffffffffffffffffffffffffff1681565b60008054906101000a900473ffffffffffffffffffffffffffffffffffffffff1673ffffffffffffffffffffffffffffffffffffffff163373ffffffffffffffffffffffffffffffffffffffff1614611f40576040517f30cd747100000000000000000000000000000000000000000000000000000000815260040160405180910390fd5b600073ffffffffffffffffffffffffffffffffffffffff16600b85604051611f68919061393c565b908152602001604051809103902060009054906101000a900473ffffffffffffffffffffffffffffffffffffffff1673ffffffffffffffffffffffffffffffffffffffff1614611fed576040517f08c379a0000000000000000000000000000000000000000000000000000000008152600401611fe490613dd8565b60405180910390fd5b6000600a60008773ffffffffffffffffffffffffffffffffffffffff1673ffffffffffffffffffffffffffffffffffffffff1681526020019081526020016000208054612039906138cf565b90501461207b576040517f08c379a000000000000000000000000000000000000000000000000000000000815260040161207290613e44565b60405180910390fd5b83600a60008773ffffffffffffffffffffffffffffffffffffffff1673ffffffffffffffffffffffffffffffffffffffff16815260200190815260200160002090816120c79190613be2565b5084600b856040516120d9919061393c565b908152602001604051809103902060006101000a81548173ffffffffffffffffffffffffffffffffffffffff021916908373ffffffffffffffffffffffffffffffffffffffff16021790555060006121466003600081548092919061213d906139ee565b91905055612c3e565b905080600d86604051612159919061393c565b908152602001604051809103902090816121739190613be2565b506040518060a0016040528082815260200186815260200185815260200184815260200183815250600c866040516121ab919061393c565b908152602001604051809103902060008201518160000190816121ce9190613be2565b5060208201518160010190816121e49190613be2565b5060408201518160020190816121fa9190613be2565b5060608201518160030190816122109190613be2565b5060808201518160040190816122269190613be2565b50905050505050505050565b60008054906101000a900473ffffffffffffffffffffffffffffffffffffffff1681565b60025481565b6007602052806000526040600020600091509050805461227b906138cf565b80601f01602080910402602001604051908101604052809291908181526020018280546122a7906138cf565b80156122f45780601f106122c9576101008083540402835291602001916122f4565b820191906000526020600020905b8154815290600101906020018083116122d757829003601f168201915b505050505081565b60035481565b6000600560008373ffffffffffffffffffffffffffffffffffffffff1673ffffffffffffffffffffffffffffffffffffffff16815260200190815260200160002060020160009054906101000a900460ff169050919050565b60008054906101000a900473ffffffffffffffffffffffffffffffffffffffff1673ffffffffffffffffffffffffffffffffffffffff163373ffffffffffffffffffffffffffffffffffffffff16146123e0576040517f30cd747100000000000000000000000000000000000000000000000000000000815260040160405180910390fd5b6000600760008773ffffffffffffffffffffffffffffffffffffffff1673ffffffffffffffffffffffffffffffffffffffff168152602001908152602001600020805461242c906138cf565b90501461246e576040517f08c379a000000000000000000000000000000000000000000000000000000000815260040161246590613eb0565b60405180910390fd5b6000600885604051612480919061393c565b9081526020016040518091039020600001805461249c906138cf565b9050146124de576040517f08c379a00000000000000000000000000000000000000000000000000000000081526004016124d590613f42565b60405180910390fd5b83600760008773ffffffffffffffffffffffffffffffffffffffff1673ffffffffffffffffffffffffffffffffffffffff168152602001908152602001600020908161252a9190613be2565b50600061254c60046000815480929190612543906139ee565b91905055612ce0565b90508060098660405161255f919061393c565b908152602001604051809103902090816125799190613be2565b506040518060a00160405280828152602001868152602001858152602001848152602001838152506008866040516125b1919061393c565b908152602001604051809103902060008201518160000190816125d49190613be2565b5060208201518160010190816125ea9190613be2565b5060408201518160020190816126009190613be2565b5060608201518160030190816126169190613be2565b5060808201518160040155905050505050505050565b600c81805160208101820180518482526020830160208501208183528095505050505050600091509050806000018054612665906138cf565b80601f0160208091040260200160405190810160405280929190818152602001828054612691906138cf565b80156126de5780601f106126b3576101008083540402835291602001916126de565b820191906000526020600020905b8154815290600101906020018083116126c157829003601f168201915b5050505050908060010180546126f3906138cf565b80601f016020809104026020016040519081016040528092919081815260200182805461271f906138cf565b801561276c5780601f106127415761010080835404028352916020019161276c565b820191906000526020600020905b81548152906001019060200180831161274f57829003601f168201915b505050505090806002018054612781906138cf565b80601f01602080910402602001604051908101604052809291908181526020018280546127ad906138cf565b80156127fa5780601f106127cf576101008083540402835291602001916127fa565b820191906000526020600020905b8154815290600101906020018083116127dd57829003601f168201915b50505050509080600301805461280f906138cf565b80601f016020809104026020016040519081016040528092919081815260200182805461283b906138cf565b80156128885780601f1061285d57610100808354040283529160200191612888565b820191906000526020600020905b81548152906001019060200180831161286b57829003601f168201915b50505050509080600401805461289d906138cf565b80601f01602080910402602001604051908101604052809291908181526020018280546128c9906138cf565b80156129165780601f106128eb57610100808354040283529160200191612916565b820191906000526020600020905b8154815290600101906020018083116128f957829003601f168201915b5050505050905085565b600b818051602081018201805184825260208301602085012081835280955050505050506000915054906101000a900473ffffffffffffffffffffffffffffffffffffffff1681565b600d81805160208101820180518482526020830160208501208183528095505050505050600091509050805461299e906138cf565b80601f01602080910402602001604051908101604052809291908181526020018280546129ca906138cf565b8015612a175780601f106129ec57610100808354040283529160200191612a17565b820191906000526020600020905b8154815290600101906020018083116129fa57829003601f168201915b505050505081565b6005602052806000526040600020600091509050806000015490806001018054612a48906138cf565b80601f0160208091040260200160405190810160405280929190818152602001828054612a74906138cf565b8015612ac15780601f10612a9657610100808354040283529160200191612ac1565b820191906000526020600020905b815481529060010190602001808311612aa457829003601f168201915b5050505050908060020160009054906101000a900460ff16905083565b606060008203612b25576040518060400160405280600181526020017f30000000000000000000000000000000000000000000000000000000000000008152509050612c39565b600082905060005b60008214612b57578080612b40906139ee565b915050600a82612b509190613f91565b9150612b2d565b60008167ffffffffffffffff811115612b7357612b72612db1565b5b6040519080825280601f01601f191660200182016040528015612ba55781602001600182028036833780820191505090505b5090505b60008514612c3257600182612bbe9190613fc2565b9150600a85612bcd9190613ff6565b6030612bd99190614027565b60f81b818381518110612bef57612bee61405b565b5b60200101907effffffffffffffffffffffffffffffffffffffffffffffffffffffffffffff1916908160001a905350600a85612c2b9190613f91565b9450612ba9565b8093505050505b919050565b6060600a821015612c7857612c5282612ade565b604051602001612c6291906140d6565b6040516020818303038152906040529050612cdb565b6064821015612cb057612c8a82612ade565b604051602001612c9a9190614144565b6040516020818303038152906040529050612cdb565b612cb982612ade565b604051602001612cc991906141b2565b60405160208183030381529060405290505b919050565b6060600a821015612d1a57612cf482612ade565b604051602001612d049190614220565b6040516020818303038152906040529050612d7d565b6064821015612d5257612d2c82612ade565b604051602001612d3c919061428e565b6040516020818303038152906040529050612d7d565b612d5b82612ade565b604051602001612d6b91906142fc565b60405160208183030381529060405290505b919050565b6000604051905090565b600080fd5b600080fd5b600080fd5b600080fd5b6000601f19601f8301169050919050565b7f4e487b7100000000000000000000000000000000000000000000000000000000600052604160045260246000fd5b612de982612da0565b810181811067ffffffffffffffff82111715612e0857612e07612db1565b5b80604052505050565b6000612e1b612d82565b9050612e278282612de0565b919050565b600067ffffffffffffffff821115612e4757612e46612db1565b5b612e5082612da0565b9050602081019050919050565b82818337600083830152505050565b6000612e7f612e7a84612e2c565b612e11565b905082815260208101848484011115612e9b57612e9a612d9b565b5b612ea6848285612e5d565b509392505050565b600082601f830112612ec357612ec2612d96565b5b8135612ed3848260208601612e6c565b91505092915050565b60008060008060808587031215612ef657612ef5612d8c565b5b600085013567ffffffffffffffff811115612f1457612f13612d91565b5b612f2087828801612eae565b945050602085013567ffffffffffffffff811115612f4157612f40612d91565b5b612f4d87828801612eae565b935050604085013567ffffffffffffffff811115612f6e57612f6d612d91565b5b612f7a87828801612eae565b925050606085013567ffffffffffffffff811115612f9b57612f9a612d91565b5b612fa787828801612eae565b91505092959194509250565b600060208284031215612fc957612fc8612d8c565b5b600082013567ffffffffffffffff811115612fe757612fe6612d91565b5b612ff384828501612eae565b91505092915050565b600081519050919050565b600082825260208201905092915050565b60005b8381101561303657808201518184015260208101905061301b565b60008484015250505050565b600061304d82612ffc565b6130578185613007565b9350613067818560208601613018565b61307081612da0565b840191505092915050565b6000819050919050565b61308e8161307b565b82525050565b600060a08201905081810360008301526130ae8188613042565b905081810360208301526130c28187613042565b905081810360408301526130d68186613042565b905081810360608301526130ea8185613042565b90506130f96080830184613085565b9695505050505050565b61310c8161307b565b811461311757600080fd5b50565b60008135905061312981613103565b92915050565b6000806040838503121561314657613145612d8c565b5b600083013567ffffffffffffffff81111561316457613163612d91565b5b61317085828601612eae565b92505060206131818582860161311a565b9150509250929050565b600060e0820190506131a0600083018a613085565b81810360208301526131b28189613042565b905081810360408301526131c68188613042565b905081810360608301526131da8187613042565b905081810360808301526131ee8186613042565b905081810360a08301526132028185613042565b905081810360c08301526132168184613042565b905098975050505050505050565b6000608082019050818103600083015261323e8187613042565b905081810360208301526132528186613042565b905081810360408301526132668185613042565b9050818103606083015261327a8184613042565b905095945050505050565b600060208201905061329a6000830184613085565b92915050565b600081519050919050565b600082825260208201905092915050565b6000819050602082019050919050565b6132d58161307b565b82525050565b600082825260208201905092915050565b60006132f782612ffc565b61330181856132db565b9350613311818560208601613018565b61331a81612da0565b840191505092915050565b600060e08301600083015161333d60008601826132cc565b506020830151848203602086015261335582826132ec565b9150506040830151848203604086015261336f82826132ec565b9150506060830151848203606086015261338982826132ec565b915050608083015184820360808601526133a382826132ec565b91505060a083015184820360a08601526133bd82826132ec565b91505060c083015184820360c08601526133d782826132ec565b9150508091505092915050565b60006133f08383613325565b905092915050565b6000602082019050919050565b6000613410826132a0565b61341a81856132ab565b93508360208202850161342c856132bc565b8060005b85811015613468578484038952815161344985826133e4565b9450613454836133f8565b925060208a01995050600181019050613430565b50829750879550505050505092915050565b600060208201905081810360008301526134948184613405565b905092915050565b60008115159050919050565b6134b18161349c565b82525050565b60006020820190506134cc60008301846134a8565b92915050565b600073ffffffffffffffffffffffffffffffffffffffff82169050919050565b60006134fd826134d2565b9050919050565b61350d816134f2565b811461351857600080fd5b50565b60008135905061352a81613504565b92915050565b6000806040838503121561354757613546612d8c565b5b60006135558582860161351b565b925050602083013567ffffffffffffffff81111561357657613575612d91565b5b61358285828601612eae565b9150509250929050565b6000602082840312156135a2576135a1612d8c565b5b60006135b08482850161351b565b91505092915050565b600060208201905081810360008301526135d38184613042565b905092915050565b6000602082840312156135f1576135f0612d8c565b5b60006135ff8482850161311a565b91505092915050565b613611816134f2565b82525050565b600060208201905061362c6000830184613608565b92915050565b600080600080600060a0868803121561364e5761364d612d8c565b5b600061365c8882890161351b565b955050602086013567ffffffffffffffff81111561367d5761367c612d91565b5b61368988828901612eae565b945050604086013567ffffffffffffffff8111156136aa576136a9612d91565b5b6136b688828901612eae565b935050606086013567ffffffffffffffff8111156136d7576136d6612d91565b5b6136e388828901612eae565b925050608086013567ffffffffffffffff81111561370457613703612d91565b5b61371088828901612eae565b9150509295509295909350565b600080600080600060a0868803121561373957613738612d8c565b5b60006137478882890161351b565b955050602086013567ffffffffffffffff81111561376857613767612d91565b5b61377488828901612eae565b945050604086013567ffffffffffffffff81111561379557613794612d91565b5b6137a188828901612eae565b935050606086013567ffffffffffffffff8111156137c2576137c1612d91565b5b6137ce88828901612eae565b92505060806137df8882890161311a565b9150509295509295909350565b600060a08201905081810360008301526138068188613042565b9050818103602083015261381a8187613042565b9050818103604083015261382e8186613042565b905081810360608301526138428185613042565b905081810360808301526138568184613042565b90509695505050505050565b60006060820190506138776000830186613085565b81810360208301526138898185613042565b905061389860408301846134a8565b949350505050565b7f4e487b7100000000000000000000000000000000000000000000000000000000600052602260045260246000fd5b600060028204905060018216806138e757607f821691505b6020821081036138fa576138f96138a0565b5b50919050565b600081905092915050565b600061391682612ffc565b6139208185613900565b9350613930818560208601613018565b80840191505092915050565b6000613948828461390b565b915081905092915050565b7f50617469656e74206e6f74207265676973746572656400000000000000000000600082015250565b6000613989601683613007565b915061399482613953565b602082019050919050565b600060208201905081810360008301526139b88161397c565b9050919050565b7f4e487b7100000000000000000000000000000000000000000000000000000000600052601160045260246000fd5b60006139f98261307b565b91507fffffffffffffffffffffffffffffffffffffffffffffffffffffffffffffffff8203613a2b57613a2a6139bf565b5b600182019050919050565b60008190508160005260206000209050919050565b60006020601f8301049050919050565b600082821b905092915050565b600060088302613a987fffffffffffffffffffffffffffffffffffffffffffffffffffffffffffffffff82613a5b565b613aa28683613a5b565b95508019841693508086168417925050509392505050565b6000819050919050565b6000613adf613ada613ad58461307b565b613aba565b61307b565b9050919050565b6000819050919050565b613af983613ac4565b613b0d613b0582613ae6565b848454613a68565b825550505050565b600090565b613b22613b15565b613b2d818484613af0565b505050565b5b81811015613b5157613b46600082613b1a565b600181019050613b33565b5050565b601f821115613b9657613b6781613a36565b613b7084613a4b565b81016020851015613b7f578190505b613b93613b8b85613a4b565b830182613b32565b50505b505050565b600082821c905092915050565b6000613bb960001984600802613b9b565b1980831691505092915050565b6000613bd28383613ba8565b9150826002028217905092915050565b613beb82612ffc565b67ffffffffffffffff811115613c0457613c03612db1565b5b613c0e82546138cf565b613c19828285613b55565b600060209050601f831160018114613c4c5760008415613c3a578287015190505b613c448582613bc6565b865550613cac565b601f198416613c5a86613a36565b60005b82811015613c8257848901518255600182019150602085019450602081019050613c5d565b86831015613c9f5784890151613c9b601f891682613ba8565b8355505b6001600288020188555050505b505050505050565b7f4e6f742072656769737465726564000000000000000000000000000000000000600082015250565b6000613cea600e83613007565b9150613cf582613cb4565b602082019050919050565b60006020820190508181036000830152613d1981613cdd565b9050919050565b7f416c726561647920726567697374657265640000000000000000000000000000600082015250565b6000613d56601283613007565b9150613d6182613d20565b602082019050919050565b60006020820190508181036000830152613d8581613d49565b9050919050565b7f4161646861617220616c72656164792072656769737465726564000000000000600082015250565b6000613dc2601a83613007565b9150613dcd82613d8c565b602082019050919050565b60006020820190508181036000830152613df181613db5565b9050919050565b7f57616c6c657420616c7265616479207573656400000000000000000000000000600082015250565b6000613e2e601383613007565b9150613e3982613df8565b602082019050919050565b60006020820190508181036000830152613e5d81613e21565b9050919050565b7f446f63746f7220616c7265616479207265676973746572656400000000000000600082015250565b6000613e9a601983613007565b9150613ea582613e64565b602082019050919050565b60006020820190508181036000830152613ec981613e8d565b9050919050565b7f4c6963656e7365206e756d62657220616c72656164792072656769737465726560008201527f6400000000000000000000000000000000000000000000000000000000000000602082015250565b6000613f2c602183613007565b9150613f3782613ed0565b604082019050919050565b60006020820190508181036000830152613f5b81613f1f565b9050919050565b7f4e487b7100000000000000000000000000000000000000000000000000000000600052601260045260246000fd5b6000613f9c8261307b565b9150613fa78361307b565b925082613fb757613fb6613f62565b5b828204905092915050565b6000613fcd8261307b565b9150613fd88361307b565b9250828203905081811115613ff057613fef6139bf565b5b92915050565b60006140018261307b565b915061400c8361307b565b92508261401c5761401b613f62565b5b828206905092915050565b60006140328261307b565b915061403d8361307b565b9250828201905080821115614055576140546139bf565b5b92915050565b7f4e487b7100000000000000000000000000000000000000000000000000000000600052603260045260246000fd5b7f5030300000000000000000000000000000000000000000000000000000000000600082015250565b60006140c0600383613900565b91506140cb8261408a565b600382019050919050565b60006140e1826140b3565b91506140ed828461390b565b915081905092915050565b7f5030000000000000000000000000000000000000000000000000000000000000600082015250565b600061412e600283613900565b9150614139826140f8565b600282019050919050565b600061414f82614121565b915061415b828461390b565b915081905092915050565b7f5000000000000000000000000000000000000000000000000000000000000000600082015250565b600061419c600183613900565b91506141a782614166565b600182019050919050565b60006141bd8261418f565b91506141c9828461390b565b915081905092915050565b7f4430300000000000000000000000000000000000000000000000000000000000600082015250565b600061420a600383613900565b9150614215826141d4565b600382019050919050565b600061422b826141fd565b9150614237828461390b565b915081905092915050565b7f4430000000000000000000000000000000000000000000000000000000000000600082015250565b6000614278600283613900565b915061428382614242565b600282019050919050565b60006142998261426b565b91506142a5828461390b565b915081905092915050565b7f4400000000000000000000000000000000000000000000000000000000000000600082015250565b60006142e6600183613900565b91506142f1826142b0565b600182019050919050565b6000614307826142d9565b9150614313828461390b565b91508190509291505056fea2646970667358221220b7bae35fd58132904d0845f6fb643a8795a32e3d749dae7c8ecf83e6c811aa8864736f6c63430008180033",
  "devdoc": {
    "kind": "dev",
    "methods": {},
    "version": 1
  },
  "userdoc": {
    "kind": "user",
    "methods": {},
    "version": 1
  },
  "storageLayout": {
    "storage": [
      {
        "astId": 9,
        "contract": "contracts/Medlock.sol:Medlock",
        "label": "owner",
        "offset": 0,
        "slot": "0",
        "type": "t_address"
      },
      {
        "astId": 12,
        "contract": "contracts/Medlock.sol:Medlock",
        "label": "nextHospitalId",
        "offset": 0,
        "slot": "1",
        "type": "t_uint256"
      },
      {
        "astId": 15,
        "contract": "contracts/Medlock.sol:Medlock",
        "label": "nextPrescriptionId",
        "offset": 0,
        "slot": "2",
        "type": "t_uint256"
      },
      {
        "astId": 18,
        "contract": "contracts/Medlock.sol:Medlock",
        "label": "nextPatientId",
        "offset": 0,
        "slot": "3",
        "type": "t_uint256"
      },
      {
        "astId": 21,
        "contract": "contracts/Medlock.sol:Medlock",
        "label": "nextDoctorId",
        "offset": 0,
        "slot": "4",
        "type": "t_uint256"
      },
      {
        "astId": 129,
        "contract": "contracts/Medlock.sol:Medlock",
        "label": "hospitals",
        "offset": 0,
        "slot": "5",
        "type": "t_mapping(t_address,t_struct(Hospital)87_storage)"
      },
      {
        "astId": 133,
        "contract": "contracts/Medlock.sol:Medlock",
        "label": "hospitalById",
        "offset": 0,
        "slot": "6",
        "type": "t_mapping(t_uint256,t_address)"
      },
      {
        "astId": 137,
        "contract": "contracts/Medlock.sol:Medlock",
        "label": "doctorLicenses",
        "offset": 0,
        "slot": "7",
        "type": "t_mapping(t_address,t_string_storage)"
      },
      {
        "astId": 142,
        "contract": "contracts/Medlock.sol:Medlock",
        "label": "doctors",
        "offset": 0,
        "slot": "8",
        "type": "t_mapping(t_string_memory_ptr,t_struct(Doctor)98_storage)"
      },
      {
        "astId": 146,
        "contract": "contracts/Medlock.sol:Medlock",
        "label": "licenseToDoctorId",
        "offset": 0,
        "slot": "9",
        "type": "t_mapping(t_string_memory_ptr,t_string_storage)"
      },
      {
        "astId": 150,
        "contract": "contracts/Medlock.sol:Medlock",
        "label": "patientAadhaars",
        "offset": 0,
        "slot": "10",
        "type": "t_mapping(t_address,t_string_storage)"
      },
      {
        "astId": 154,
        "contract": "contracts/Medlock.sol:Medlock",
        "label": "aadhaarToAddress",
        "offset": 0,
        "slot": "11",
        "type": "t_mapping(t_string_memory_ptr,t_address)"
      },
      {
        "astId": 159,
        "contract": "contracts/Medlock.sol:Medlock",
        "label": "patients",
        "offset": 0,
        "slot": "12",
        "type": "t_mapping(t_string_memory_ptr,t_struct(Patient)109_storage)"
      },
      {
        "astId": 163,
        "contract": "contracts/Medlock.sol:Medlock",
        "label": "aadhaarToPatientId",
        "offset": 0,
        "slot": "13",
        "type": "t_mapping(t_string_memory_ptr,t_string_storage)"
      },
      {
        "astId": 169,
        "contract": "contracts/Medlock.sol:Medlock",
        "label": "prescriptions",
        "offset": 0,
        "slot": "14",
        "type": "t_mapping(t_string_memory_ptr,t_array(t_struct(Prescription)124_storage)dyn_storage)"
      }
    ],
    "types": {
      "t_address": {
        "encoding": "inplace",
        "label": "address",
        "numberOfBytes": "20"
      },
      "t_array(t_struct(Prescription)124_storage)dyn_storage": {
        "base": "t_struct(Prescription)124_storage",
        "encoding": "dynamic_array",
        "label": "struct Medlock.Prescription[]",
        "numberOfBytes": "32"
      },
      "t_bool": {
        "encoding": "inplace",
        "label": "bool",
        "numberOfBytes": "1"
      },
      "t_mapping(t_address,t_string_storage)": {
        "encoding": "mapping",
        "key": "t_address",
        "label": "mapping(address => string)",
        "numberOfBytes": "32",
        "value": "t_string_storage"
      },
      "t_mapping(t_address,t_struct(Hospital)87_storage)": {
        "encoding": "mapping",
        "key": "t_address",
        "label": "mapping(address => struct Medlock.Hospital)",
        "numberOfBytes": "32",
        "value": "t_struct(Hospital)87_storage"
      },
      "t_mapping(t_string_memory_ptr,t_address)": {
        "encoding": "mapping",
        "key": "t_string_memory_ptr",
        "label": "mapping(string => address)",
        "numberOfBytes": "32",
        "value": "t_address"
      },
      "t_mapping(t_string_memory_ptr,t_array(t_struct(Prescription)124_storage)dyn_storage)": {
        "encoding": "mapping",
        "key": "t_string_memory_ptr",
        "label": "mapping(string => struct Medlock.Prescription[])",
        "numberOfBytes": "32",
        "value": "t_array(t_struct(Prescription)124_storage)dyn_storage"
      },
      "t_mapping(t_string_memory_ptr,t_string_storage)": {
        "encoding": "mapping",
        "key": "t_string_memory_ptr",
        "label": "mapping(string => string)",
        "numberOfBytes": "32",
        "value": "t_string_storage"
      },
      "t_mapping(t_string_memory_ptr,t_struct(Doctor)98_storage)": {
        "encoding": "mapping",
        "key": "t_string_memory_ptr",
        "label": "mapping(string => struct Medlock.Doctor)",
        "numberOfBytes": "32",
        "value": "t_struct(Doctor)98_storage"
      },
      "t_mapping(t_string_memory_ptr,t_struct(Patient)109_storage)": {
        "encoding": "mapping",
        "key": "t_string_memory_ptr",
        "label": "mapping(string => struct Medlock.Patient)",
        "numberOfBytes": "32",
        "value": "t_struct(Patient)109_storage"
      },
      "t_mapping(t_uint256,t_address)": {
        "encoding": "mapping",
        "key": "t_uint256",
        "label": "mapping(uint256 => address)",
        "numberOfBytes": "32",
        "value": "t_address"
      },
      "t_string_memory_ptr": {
        "encoding": "bytes",
        "label": "string",
        "numberOfBytes": "32"
      },
      "t_string_storage": {
        "encoding": "bytes",
        "label": "string",
        "numberOfBytes": "32"
      },
      "t_struct(Doctor)98_storage": {
        "encoding": "inplace",
        "label": "struct Medlock.Doctor",
        "members": [
          {
            "astId": 89,
            "contract": "contracts/Medlock.sol:Medlock",
            "label": "doctorId",
            "offset": 0,
            "slot": "0",
            "type": "t_string_storage"
          },
          {
            "astId": 91,
            "contract": "contracts/Medlock.sol:Medlock",
            "label": "licenseNumber",
            "offset": 0,
            "slot": "1",
            "type": "t_string_storage"
          },
          {
            "astId": 93,
            "contract": "contracts/Medlock.sol:Medlock",
            "label": "name",
            "offset": 0,
            "slot": "2",
            "type": "t_string_storage"
          },
          {
            "astId": 95,
            "contract": "contracts/Medlock.sol:Medlock",
            "label": "specialization",
            "offset": 0,
            "slot": "3",
            "type": "t_string_storage"
          },
          {
            "astId": 97,
            "contract": "contracts/Medlock.sol:Medlock",
            "label": "hospitalId",
            "offset": 0,
            "slot": "4",
            "type": "t_uint256"
          }
        ],
        "numberOfBytes": "160"
      },
      "t_struct(Hospital)87_storage": {
        "encoding": "inplace",
        "label": "struct Medlock.Hospital",
        "members": [
          {
            "astId": 82,
            "contract": "contracts/Medlock.sol:Medlock",
            "label": "hospitalId",
            "offset": 0,
            "slot": "0",
            "type": "t_uint256"
          },
          {
            "astId": 84,
            "contract": "contracts/Medlock.sol:Medlock",
            "label": "name",
            "offset": 0,
            "slot": "1",
            "type": "t_string_storage"
          },
          {
            "astId": 86,
            "contract": "contracts/Medlock.sol:Medlock",
            "label": "isRegistered",
            "offset": 0,
            "slot": "2",
            "type": "t_bool"
          }
        ],
        "numberOfBytes": "96"
      },
      "t_struct(Patient)109_storage": {
        "encoding": "inplace",
        "label": "struct Medlock.Patient",
        "members": [
          {
            "astId": 100,
            "contract": "contracts/Medlock.sol:Medlock",
            "label": "patientId",
            "offset": 0,
            "slot": "0",
            "type": "t_string_storage"
          },
          {
            "astId": 102,
            "contract": "contracts/Medlock.sol:Medlock",
            "label": "aadhaar",
            "offset": 0,
            "slot": "1",
            "type": "t_string_storage"
          },
          {
            "astId": 104,
            "contract": "contracts/Medlock.sol:Medlock",
            "label": "name",
            "offset": 0,
            "slot": "2",
            "type": "t_string_storage"
          },
          {
            "astId": 106,
            "contract": "contracts/Medlock.sol:Medlock",
            "label": "dob",
            "offset": 0,
            "slot": "3",
            "type": "t_string_storage"
          },
          {
            "astId": 108,
            "contract": "contracts/Medlock.sol:Medlock",
            "label": "contactDetails",
            "offset": 0,
            "slot": "4",
            "type": "t_string_storage"
          }
        ],
        "numberOfBytes": "160"
      },
      "t_struct(Prescription)124_storage": {
        "encoding": "inplace",
        "label": "struct Medlock.Prescription",
        "members": [
          {
            "astId": 111,
            "contract": "contracts/Medlock.sol:Medlock",
            "label": "prescriptionId",
            "offset": 0,
            "slot": "0",
            "type": "t_uint256"
          },
          {
            "astId": 113,
            "contract": "contracts/Medlock.sol:Medlock",
            "label": "patientId",
            "offset": 0,
            "slot": "1",
            "type": "t_string_storage"
          },
          {
            "astId": 115,
            "contract": "contracts/Medlock.sol:Medlock",
            "label": "doctorId",
            "offset": 0,
            "slot": "2",
            "type": "t_string_storage"
          },
          {
            "astId": 117,
            "contract": "contracts/Medlock.sol:Medlock",
            "label": "issueDate",
            "offset": 0,
            "slot": "3",
            "type": "t_string_storage"
          },
          {
            "astId": 119,
            "contract": "contracts/Medlock.sol:Medlock",
            "label": "diagnosis",
            "offset": 0,
            "slot": "4",
            "type": "t_string_storage"
          },
          {
            "astId": 121,
            "contract": "contracts/Medlock.sol:Medlock",
            "label": "treatment",
            "offset": 0,
            "slot": "5",
            "type": "t_string_storage"
          },
          {
            "astId": 123,
            "contract": "contracts/Medlock.sol:Medlock",
            "label": "remarks",
            "offset": 0,
            "slot": "6",
            "type": "t_string_storage"
          }
        ],
        "numberOfBytes": "224"
      },
      "t_uint256": {
        "encoding": "inplace",
        "label": "uint256",
        "numberOfBytes": "32"
      }
    }
  }
}