{
  "address": "0x5FbDB2315678afecb367f032d93F642f64180aa3",
  "abi": [
    {
      "inputs": [],
      "stateMutability": "nonpayable",
      "type": "constructor"
    },
    {
      "inputs": [],
      "name": "NotDoctor",
      "type": "error"
    },
    {
      "inputs": [],
      "name": "NotOwner",
      "type": "error"
    },
    {
      "inputs": [
        {
          "internalType": "string",
          "name": "",
          "type": "string"
        }
      ],
      "name": "aadhaarToAddress",
      "outputs": [
        {
          "internalType": "address",
          "name": "",
          "type": "address"
        }
      ],
      "stateMutability": "view",
      "type": "function"
    },
    {
      "inputs": [
        {
          "internalType": "string",
          "name": "",
          "type": "string"
        }
      ],
      "name": "aadhaarToPatientId",
      "outputs": [
        {
          "internalType": "string",
          "name": "",
          "type": "string"
        }
      ],
      "stateMutability": "view",
      "type": "function"
    },
    {
      "inputs": [
        {
          "internalType": "string",
          "name": "_aadhaar",
          "type": "string"
        },
        {
          "internalType": "string",
          "name": "_diagnosis",
          "type": "string"
        },
        {
          "internalType": "string",
          "name": "_treatment",
          "type": "string"
        },
        {
          "internalType": "string",
          "name": "_remarks",
          "type": "string"
        }
      ],
      "name": "addPrescription",
      "outputs": [],
      "stateMutability": "nonpayable",
      "type": "function"
    },
    {
      "inputs": [
        {
          "internalType": "address",
          "name": "",
          "type": "address"
        }
      ],
      "name": "doctorLicenses",
      "outputs": [
        {
          "internalType": "string",
          "name": "",
          "type": "string"
        }
      ],
      "stateMutability": "view",
      "type": "function"
    },
    {
      "inputs": [
        {
          "internalType": "string",
          "name": "",
          "type": "string"
        }
      ],
      "name": "doctors",
      "outputs": [
        {
          "internalType": "string",
          "name": "doctorId",
          "type": "string"
        },
        {
          "internalType": "string",
          "name": "licenseNumber",
          "type": "string"
        },
        {
          "internalType": "string",
          "name": "name",
          "type": "string"
        },
        {
          "internalType": "string",
          "name": "specialization",
          "type": "string"
        },
        {
          "internalType": "uint256",
          "name": "hospitalId",
          "type": "uint256"
        }
      ],
      "stateMutability": "view",
      "type": "function"
    },
    {
      "inputs": [],
      "name": "getMyPrescriptions",
      "outputs": [
        {
          "components": [
            {
              "internalType": "uint256",
              "name": "prescriptionId",
              "type": "uint256"
            },
            {
              "internalType": "string",
              "name": "patientId",
              "type": "string"
            },
            {
              "internalType": "string",
              "name": "doctorId",
              "type": "string"
            },
            {
              "internalType": "string",
              "name": "issueDate",
              "type": "string"
            },
            {
              "internalType": "string",
              "name": "diagnosis",
              "type": "string"
            },
            {
              "internalType": "string",
              "name": "treatment",
              "type": "string"
            },
            {
              "internalType": "string",
              "name": "remarks",
              "type": "string"
            }
          ],
          "internalType": "struct Medlock.Prescription[]",
          "name": "",
          "type": "tuple[]"
        }
      ],
      "stateMutability": "view",
      "type": "function"
    },
    {
      "inputs": [],
      "name": "getMyProfile",
      "outputs": [
        {
          "internalType": "string",
          "name": "patientId",
          "type": "string"
        },
        {
          "internalType": "string",
          "name": "name",
          "type": "string"
        },
        {
          "internalType": "string",
          "name": "dob",
          "type": "string"
        },
        {
          "internalType": "string",
          "name": "contactDetails",
          "type": "string"
        }
      ],
      "stateMutability": "view",
      "type": "function"
    },
    {
      "inputs": [
        {
          "internalType": "uint256",
          "name": "",
          "type": "uint256"
        }
      ],
      "name": "hospitalById",
      "outputs": [
        {
          "internalType": "address",
          "name": "",
          "type": "address"
        }
      ],
      "stateMutability": "view",
      "type": "function"
    },
    {
      "inputs": [
        {
          "internalType": "address",
          "name": "",
          "type": "address"
        }
      ],
      "name": "hospitals",
      "outputs": [
        {
          "internalType": "uint256",
          "name": "hospitalId",
          "type": "uint256"
        },
        {
          "internalType": "string",
          "name": "name",
          "type": "string"
        },
        {
          "internalType": "bool",
          "name": "isRegistered",
          "type": "bool"
        }
      ],
      "stateMutability": "view",
      "type": "function"
    },
    {
      "inputs": [
        {
          "internalType": "address",
          "name": "_wallet",
          "type": "address"
        }
      ],
      "name": "isDoctorRegistered",
      "outputs": [
        {
          "internalType": "bool",
          "name": "",
          "type": "bool"
        }
      ],
      "stateMutability": "view",
      "type": "function"
    },
    {
      "inputs": [
        {
          "internalType": "address",
          "name": "_hospitalAddress",
          "type": "address"
        }
      ],
      "name": "isHospitalRegistered",
      "outputs": [
        {
          "internalType": "bool",
          "name": "",
          "type": "bool"
        }
      ],
      "stateMutability": "view",
      "type": "function"
    },
    {
      "inputs": [
        {
          "internalType": "string",
          "name": "_aadhaar",
          "type": "string"
        }
      ],
      "name": "isPatientRegistered",
      "outputs": [
        {
          "internalType": "bool",
          "name": "",
          "type": "bool"
        }
      ],
      "stateMutability": "view",
      "type": "function"
    },
    {
      "inputs": [
        {
          "internalType": "string",
          "name": "",
          "type": "string"
        }
      ],
      "name": "licenseToDoctorId",
      "outputs": [
        {
          "internalType": "string",
          "name": "",
          "type": "string"
        }
      ],
      "stateMutability": "view",
      "type": "function"
    },
    {
      "inputs": [],
      "name": "nextDoctorId",
      "outputs": [
        {
          "internalType": "uint256",
          "name": "",
          "type": "uint256"
        }
      ],
      "stateMutability": "view",
      "type": "function"
    },
    {
      "inputs": [],
      "name": "nextHospitalId",
      "outputs": [
        {
          "internalType": "uint256",
          "name": "",
          "type": "uint256"
        }
      ],
      "stateMutability": "view",
      "type": "function"
    },
    {
      "inputs": [],
      "name": "nextPatientId",
      "outputs": [
        {
          "internalType": "uint256",
          "name": "",
          "type": "uint256"
        }
      ],
      "stateMutability": "view",
      "type": "function"
    },
    {
      "inputs": [],
      "name": "nextPrescriptionId",
      "outputs": [
        {
          "internalType": "uint256",
          "name": "",
          "type": "uint256"
        }
      ],
      "stateMutability": "view",
      "type": "function"
    },
    {
      "inputs": [],
      "name": "owner",
      "outputs": [
        {
          "internalType": "address",
          "name": "",
          "type": "address"
        }
      ],
      "stateMutability": "view",
      "type": "function"
    },
    {
      "inputs": [
        {
          "internalType": "address",
          "name": "",
          "type": "address"
        }
      ],
      "name": "patientAadhaars",
      "outputs": [
        {
          "internalType": "string",
          "name": "",
          "type": "string"
        }
      ],
      "stateMutability": "view",
      "type": "function"
    },
    {
      "inputs": [
        {
          "internalType": "string",
          "name": "",
          "type": "string"
        }
      ],
      "name": "patients",
      "outputs": [
        {
          "internalType": "string",
          "name": "patientId",
          "type": "string"
        },
        {
          "internalType": "string",
          "name": "aadhaar",
          "type": "string"
        },
        {
          "internalType": "string",
          "name": "name",
          "type": "string"
        },
        {
          "internalType": "string",
          "name": "dob",
          "type": "string"
        },
        {
          "internalType": "string",
          "name": "contactDetails",
          "type": "string"
        }
      ],
      "stateMutability": "view",
      "type": "function"
    },
    {
      "inputs": [
        {
          "internalType": "string",
          "name": "",
          "type": "string"
        },
        {
          "internalType": "uint256",
          "name": "",
          "type": "uint256"
        }
      ],
      "name": "prescriptions",
      "outputs": [
        {
          "internalType": "uint256",
          "name": "prescriptionId",
          "type": "uint256"
        },
        {
          "internalType": "string",
          "name": "patientId",
          "type": "string"
        },
        {
          "internalType": "string",
          "name": "doctorId",
          "type": "string"
        },
        {
          "internalType": "string",
          "name": "issueDate",
          "type": "string"
        },
        {
          "internalType": "string",
          "name": "diagnosis",
          "type": "string"
        },
        {
          "internalType": "string",
          "name": "treatment",
          "type": "string"
        },
        {
          "internalType": "string",
          "name": "remarks",
          "type": "string"
        }
      ],
      "stateMutability": "view",
      "type": "function"
    },
    {
      "inputs": [
        {
          "internalType": "address",
          "name": "_wallet",
          "type": "address"
        },
        {
          "internalType": "string",
          "name": "_licenseNumber",
          "type": "string"
        },
        {
          "internalType": "string",
          "name": "_name",
          "type": "string"
        },
        {
          "internalType": "string",
          "name": "_specialization",
          "type": "string"
        },
        {
          "internalType": "uint256",
          "name": "_hospitalId",
          "type": "uint256"
        }
      ],
      "name": "registerDoctor",
      "outputs": [],
      "stateMutability": "nonpayable",
      "type": "function"
    },
    {
      "inputs": [
        {
          "internalType": "address",
          "name": "_hospitalAddress",
          "type": "address"
        },
        {
          "internalType": "string",
          "name": "_name",
          "type": "string"
        }
      ],
      "name": "registerHospital",
      "outputs": [],
      "stateMutability": "nonpayable",
      "type": "function"
    },
    {
      "inputs": [
        {
          "internalType": "address",
          "name": "_wallet",
          "type": "address"
        },
        {
          "internalType": "string",
          "name": "_aadhaar",
          "type": "string"
        },
        {
          "internalType": "string",
          "name": "_name",
          "type": "string"
        },
        {
          "internalType": "string",
          "name": "_dob",
          "type": "string"
        },
        {
          "internalType": "string",
          "name": "_contactDetails",
          "type": "string"
        }
      ],
      "name": "registerPatient",
      "outputs": [],
      "stateMutability": "nonpayable",
      "type": "function"
    }
  ],
  "transactionHash": "0x9510b5fe0be26fda91ad780d5cf851f6ca273fa17795514752f833edc39929dc",
  "args": [],
  "numDeployments": 1,
  "solcInputHash": "913642c942cda2acdd4f111556f0db1d",
  "bytecode": "0x60806040526001805560016002556001600355600160045534801561002357600080fd5b50336000806101000a81548173ffffffffffffffffffffffffffffffffffffffff021916908373ffffffffffffffffffffffffffffffffffffffff16021790555061424a806100736000396000f3fe608060405234801561001057600080fd5b50600436106101585760003560e01c806385ed30db116100c3578063bc84243e1161007c578063bc84243e14610410578063be528fbd14610440578063c6009d841461045c578063e18473fa14610490578063e24fb942146104c0578063f093cf80146104f057610158565b806385ed30db1461033a5780638c09e01d1461036a5780638da5cb5b146103865780638e21e579146103a45780639adbf315146103c2578063b1131795146103f257610158565b8063463b5fda11610115578063463b5fda146102405780634f10c6c21461025e5780634fbaa0231461028e57806378550390146102aa5780637a802e25146102da57806385958e0e1461030a57610158565b80630581ee821461015d57806305c35ce5146101795780631abb6926146101ad57806321527e50146101e357806331b3bac5146102045780633c94c9c714610222575b600080fd5b61017760048036038101906101729190612dd2565b610522565b005b610193600480360381019061018e9190612ea9565b610a30565b6040516101a4959493929190612f8a565b60405180910390f35b6101c760048036038101906101c29190613025565b610c9c565b6040516101da9796959493929190613081565b60405180910390f35b6101eb611041565b6040516101fb949392919061311a565b60405180910390f35b61020c611482565b604051610219919061317b565b60405180910390f35b61022a611488565b604051610237919061317b565b60405180910390f35b61024861148e565b6040516102559190613370565b60405180910390f35b61027860048036038101906102739190612ea9565b611a3c565b60405161028591906133ad565b60405180910390f35b6102a860048036038101906102a39190613426565b611ab3565b005b6102c460048036038101906102bf9190613482565b611cda565b6040516102d191906133ad565b60405180910390f35b6102f460048036038101906102ef9190612ea9565b611d32565b60405161030191906134af565b60405180910390f35b610324600480360381019061031f9190613482565b611de8565b60405161033191906134af565b60405180910390f35b610354600480360381019061034f91906134d1565b611e88565b604051610361919061350d565b60405180910390f35b610384600480360381019061037f9190613528565b611ebb565b005b61038e6121ad565b60405161039b919061350d565b60405180910390f35b6103ac6121d1565b6040516103b9919061317b565b60405180910390f35b6103dc60048036038101906103d79190613482565b6121d7565b6040516103e991906134af565b60405180910390f35b6103fa612277565b604051610407919061317b565b60405180910390f35b61042a60048036038101906104259190613482565b61227d565b60405161043791906133ad565b60405180910390f35b61045a60048036038101906104559190613613565b6122d6565b005b61047660048036038101906104719190612ea9565b612522565b6040516104879594939291906136e2565b60405180910390f35b6104aa60048036038101906104a59190612ea9565b612816565b6040516104b7919061350d565b60405180910390f35b6104da60048036038101906104d59190612ea9565b61285f565b6040516104e791906134af565b60405180910390f35b61050a60048036038101906105059190613482565b612915565b60405161051993929190613758565b60405180910390f35b6000600760003373ffffffffffffffffffffffffffffffffffffffff1673ffffffffffffffffffffffffffffffffffffffff168152602001908152602001600020805461056e906137c5565b80601f016020809104026020016040519081016040528092919081815260200182805461059a906137c5565b80156105e75780601f106105bc576101008083540402835291602001916105e7565b820191906000526020600020905b8154815290600101906020018083116105ca57829003601f168201915b505050505090506000815103610629576040517f54069c0700000000000000000000000000000000000000000000000000000000815260040160405180910390fd5b6000600760003373ffffffffffffffffffffffffffffffffffffffff1673ffffffffffffffffffffffffffffffffffffffff1681526020019081526020016000208054610675906137c5565b80601f01602080910402602001604051908101604052809291908181526020018280546106a1906137c5565b80156106ee5780601f106106c3576101008083540402835291602001916106ee565b820191906000526020600020905b8154815290600101906020018083116106d157829003601f168201915b5050505050905060006009826040516107079190613832565b90815260200160405180910390208054610720906137c5565b80601f016020809104026020016040519081016040528092919081815260200182805461074c906137c5565b80156107995780601f1061076e57610100808354040283529160200191610799565b820191906000526020600020905b81548152906001019060200180831161077c57829003601f168201915b50505050509050600073ffffffffffffffffffffffffffffffffffffffff16600b886040516107c89190613832565b908152602001604051809103902060009054906101000a900473ffffffffffffffffffffffffffffffffffffffff1673ffffffffffffffffffffffffffffffffffffffff160361084d576040517f08c379a000000000000000000000000000000000000000000000000000000000815260040161084490613895565b60405180910390fd5b6000600d8860405161085f9190613832565b90815260200160405180910390208054610878906137c5565b80601f01602080910402602001604051908101604052809291908181526020018280546108a4906137c5565b80156108f15780601f106108c6576101008083540402835291602001916108f1565b820191906000526020600020905b8154815290600101906020018083116108d457829003601f168201915b505050505090506000610903426129d4565b9050600e826040516109159190613832565b90815260200160405180910390206040518060e0016040528060026000815480929190610941906138e4565b9190505581526020018481526020018581526020018381526020018a81526020018981526020018881525090806001815401808255809150506001900390600052602060002090600702016000909190919091506000820151816000015560208201518160010190816109b49190613ad8565b5060408201518160020190816109ca9190613ad8565b5060608201518160030190816109e09190613ad8565b5060808201518160040190816109f69190613ad8565b5060a0820151816005019081610a0c9190613ad8565b5060c0820151816006019081610a229190613ad8565b505050505050505050505050565b600881805160208101820180518482526020830160208501208183528095505050505050600091509050806000018054610a69906137c5565b80601f0160208091040260200160405190810160405280929190818152602001828054610a95906137c5565b8015610ae25780601f10610ab757610100808354040283529160200191610ae2565b820191906000526020600020905b815481529060010190602001808311610ac557829003601f168201915b505050505090806001018054610af7906137c5565b80601f0160208091040260200160405190810160405280929190818152602001828054610b23906137c5565b8015610b705780601f10610b4557610100808354040283529160200191610b70565b820191906000526020600020905b815481529060010190602001808311610b5357829003601f168201915b505050505090806002018054610b85906137c5565b80601f0160208091040260200160405190810160405280929190818152602001828054610bb1906137c5565b8015610bfe5780601f10610bd357610100808354040283529160200191610bfe565b820191906000526020600020905b815481529060010190602001808311610be157829003601f168201915b505050505090806003018054610c13906137c5565b80601f0160208091040260200160405190810160405280929190818152602001828054610c3f906137c5565b8015610c8c5780601f10610c6157610100808354040283529160200191610c8c565b820191906000526020600020905b815481529060010190602001808311610c6f57829003601f168201915b5050505050908060040154905085565b600e828051602081018201805184825260208301602085012081835280955050505050508181548110610cce57600080fd5b906000526020600020906007020160009150915050806000015490806001018054610cf8906137c5565b80601f0160208091040260200160405190810160405280929190818152602001828054610d24906137c5565b8015610d715780601f10610d4657610100808354040283529160200191610d71565b820191906000526020600020905b815481529060010190602001808311610d5457829003601f168201915b505050505090806002018054610d86906137c5565b80601f0160208091040260200160405190810160405280929190818152602001828054610db2906137c5565b8015610dff5780601f10610dd457610100808354040283529160200191610dff565b820191906000526020600020905b815481529060010190602001808311610de257829003601f168201915b505050505090806003018054610e14906137c5565b80601f0160208091040260200160405190810160405280929190818152602001828054610e40906137c5565b8015610e8d5780601f10610e6257610100808354040283529160200191610e8d565b820191906000526020600020905b815481529060010190602001808311610e7057829003601f168201915b505050505090806004018054610ea2906137c5565b80601f0160208091040260200160405190810160405280929190818152602001828054610ece906137c5565b8015610f1b5780601f10610ef057610100808354040283529160200191610f1b565b820191906000526020600020905b815481529060010190602001808311610efe57829003601f168201915b505050505090806005018054610f30906137c5565b80601f0160208091040260200160405190810160405280929190818152602001828054610f5c906137c5565b8015610fa95780601f10610f7e57610100808354040283529160200191610fa9565b820191906000526020600020905b815481529060010190602001808311610f8c57829003601f168201915b505050505090806006018054610fbe906137c5565b80601f0160208091040260200160405190810160405280929190818152602001828054610fea906137c5565b80156110375780601f1061100c57610100808354040283529160200191611037565b820191906000526020600020905b81548152906001019060200180831161101a57829003601f168201915b5050505050905087565b6060806060806000600a60003373ffffffffffffffffffffffffffffffffffffffff1673ffffffffffffffffffffffffffffffffffffffff1681526020019081526020016000208054611093906137c5565b80601f01602080910402602001604051908101604052809291908181526020018280546110bf906137c5565b801561110c5780601f106110e15761010080835404028352916020019161110c565b820191906000526020600020905b8154815290600101906020018083116110ef57829003601f168201915b505050505090506000815111611157576040517f08c379a000000000000000000000000000000000000000000000000000000000815260040161114e90613bf6565b60405180910390fd5b6000600c826040516111699190613832565b90815260200160405180910390206040518060a0016040529081600082018054611192906137c5565b80601f01602080910402602001604051908101604052809291908181526020018280546111be906137c5565b801561120b5780601f106111e05761010080835404028352916020019161120b565b820191906000526020600020905b8154815290600101906020018083116111ee57829003601f168201915b50505050508152602001600182018054611224906137c5565b80601f0160208091040260200160405190810160405280929190818152602001828054611250906137c5565b801561129d5780601f106112725761010080835404028352916020019161129d565b820191906000526020600020905b81548152906001019060200180831161128057829003601f168201915b505050505081526020016002820180546112b6906137c5565b80601f01602080910402602001604051908101604052809291908181526020018280546112e2906137c5565b801561132f5780601f106113045761010080835404028352916020019161132f565b820191906000526020600020905b81548152906001019060200180831161131257829003601f168201915b50505050508152602001600382018054611348906137c5565b80601f0160208091040260200160405190810160405280929190818152602001828054611374906137c5565b80156113c15780601f10611396576101008083540402835291602001916113c1565b820191906000526020600020905b8154815290600101906020018083116113a457829003601f168201915b505050505081526020016004820180546113da906137c5565b80601f0160208091040260200160405190810160405280929190818152602001828054611406906137c5565b80156114535780601f1061142857610100808354040283529160200191611453565b820191906000526020600020905b81548152906001019060200180831161143657829003601f168201915b505050505081525050905080600001518160400151826060015183608001519550955095509550505090919293565b60045481565b60015481565b60606000600a60003373ffffffffffffffffffffffffffffffffffffffff1673ffffffffffffffffffffffffffffffffffffffff16815260200190815260200160002080546114dc906137c5565b80601f0160208091040260200160405190810160405280929190818152602001828054611508906137c5565b80156115555780601f1061152a57610100808354040283529160200191611555565b820191906000526020600020905b81548152906001019060200180831161153857829003601f168201915b5050505050905060008151116115a0576040517f08c379a000000000000000000000000000000000000000000000000000000000815260040161159790613bf6565b60405180910390fd5b6000600d826040516115b29190613832565b908152602001604051809103902080546115cb906137c5565b80601f01602080910402602001604051908101604052809291908181526020018280546115f7906137c5565b80156116445780601f1061161957610100808354040283529160200191611644565b820191906000526020600020905b81548152906001019060200180831161162757829003601f168201915b50505050509050600e8160405161165b9190613832565b9081526020016040518091039020805480602002602001604051908101604052809291908181526020016000905b82821015611a3157838290600052602060002090600702016040518060e0016040529081600082015481526020016001820180546116c6906137c5565b80601f01602080910402602001604051908101604052809291908181526020018280546116f2906137c5565b801561173f5780601f106117145761010080835404028352916020019161173f565b820191906000526020600020905b81548152906001019060200180831161172257829003601f168201915b50505050508152602001600282018054611758906137c5565b80601f0160208091040260200160405190810160405280929190818152602001828054611784906137c5565b80156117d15780601f106117a6576101008083540402835291602001916117d1565b820191906000526020600020905b8154815290600101906020018083116117b457829003601f168201915b505050505081526020016003820180546117ea906137c5565b80601f0160208091040260200160405190810160405280929190818152602001828054611816906137c5565b80156118635780601f1061183857610100808354040283529160200191611863565b820191906000526020600020905b81548152906001019060200180831161184657829003601f168201915b5050505050815260200160048201805461187c906137c5565b80601f01602080910402602001604051908101604052809291908181526020018280546118a8906137c5565b80156118f55780601f106118ca576101008083540402835291602001916118f5565b820191906000526020600020905b8154815290600101906020018083116118d857829003601f168201915b5050505050815260200160058201805461190e906137c5565b80601f016020809104026020016040519081016040528092919081815260200182805461193a906137c5565b80156119875780601f1061195c57610100808354040283529160200191611987565b820191906000526020600020905b81548152906001019060200180831161196a57829003601f168201915b505050505081526020016006820180546119a0906137c5565b80601f01602080910402602001604051908101604052809291908181526020018280546119cc906137c5565b8015611a195780601f106119ee57610100808354040283529160200191611a19565b820191906000526020600020905b8154815290600101906020018083116119fc57829003601f168201915b50505050508152505081526020019060010190611689565b505050509250505090565b60008073ffffffffffffffffffffffffffffffffffffffff16600b83604051611a659190613832565b908152602001604051809103902060009054906101000a900473ffffffffffffffffffffffffffffffffffffffff1673ffffffffffffffffffffffffffffffffffffffff1614159050919050565b60008054906101000a900473ffffffffffffffffffffffffffffffffffffffff1673ffffffffffffffffffffffffffffffffffffffff163373ffffffffffffffffffffffffffffffffffffffff1614611b38576040517f30cd747100000000000000000000000000000000000000000000000000000000815260040160405180910390fd5b600560008373ffffffffffffffffffffffffffffffffffffffff1673ffffffffffffffffffffffffffffffffffffffff16815260200190815260200160002060020160009054906101000a900460ff1615611bc8576040517f08c379a0000000000000000000000000000000000000000000000000000000008152600401611bbf90613c62565b60405180910390fd5b6040518060600160405280600154815260200182815260200160011515815250600560008473ffffffffffffffffffffffffffffffffffffffff1673ffffffffffffffffffffffffffffffffffffffff168152602001908152602001600020600082015181600001556020820151816001019081611c469190613ad8565b5060408201518160020160006101000a81548160ff0219169083151502179055509050508160066000600154815260200190815260200160002060006101000a81548173ffffffffffffffffffffffffffffffffffffffff021916908373ffffffffffffffffffffffffffffffffffffffff16021790555060016000815480929190611cd1906138e4565b91905055505050565b600080600760008473ffffffffffffffffffffffffffffffffffffffff1673ffffffffffffffffffffffffffffffffffffffff1681526020019081526020016000208054611d27906137c5565b905014159050919050565b6009818051602081018201805184825260208301602085012081835280955050505050506000915090508054611d67906137c5565b80601f0160208091040260200160405190810160405280929190818152602001828054611d93906137c5565b8015611de05780601f10611db557610100808354040283529160200191611de0565b820191906000526020600020905b815481529060010190602001808311611dc357829003601f168201915b505050505081565b600a6020528060005260406000206000915090508054611e07906137c5565b80601f0160208091040260200160405190810160405280929190818152602001828054611e33906137c5565b8015611e805780601f10611e5557610100808354040283529160200191611e80565b820191906000526020600020905b815481529060010190602001808311611e6357829003601f168201915b505050505081565b60066020528060005260406000206000915054906101000a900473ffffffffffffffffffffffffffffffffffffffff1681565b600073ffffffffffffffffffffffffffffffffffffffff16600b85604051611ee39190613832565b908152602001604051809103902060009054906101000a900473ffffffffffffffffffffffffffffffffffffffff1673ffffffffffffffffffffffffffffffffffffffff1614611f68576040517f08c379a0000000000000000000000000000000000000000000000000000000008152600401611f5f90613cce565b60405180910390fd5b6000600a60008773ffffffffffffffffffffffffffffffffffffffff1673ffffffffffffffffffffffffffffffffffffffff1681526020019081526020016000208054611fb4906137c5565b905014611ff6576040517f08c379a0000000000000000000000000000000000000000000000000000000008152600401611fed90613d3a565b60405180910390fd5b83600a60008773ffffffffffffffffffffffffffffffffffffffff1673ffffffffffffffffffffffffffffffffffffffff16815260200190815260200160002090816120429190613ad8565b5084600b856040516120549190613832565b908152602001604051809103902060006101000a81548173ffffffffffffffffffffffffffffffffffffffff021916908373ffffffffffffffffffffffffffffffffffffffff16021790555060006120c1600360008154809291906120b8906138e4565b91905055612b34565b905080600d866040516120d49190613832565b908152602001604051809103902090816120ee9190613ad8565b506040518060a0016040528082815260200186815260200185815260200184815260200183815250600c866040516121269190613832565b908152602001604051809103902060008201518160000190816121499190613ad8565b50602082015181600101908161215f9190613ad8565b5060408201518160020190816121759190613ad8565b50606082015181600301908161218b9190613ad8565b5060808201518160040190816121a19190613ad8565b50905050505050505050565b60008054906101000a900473ffffffffffffffffffffffffffffffffffffffff1681565b60025481565b600760205280600052604060002060009150905080546121f6906137c5565b80601f0160208091040260200160405190810160405280929190818152602001828054612222906137c5565b801561226f5780601f106122445761010080835404028352916020019161226f565b820191906000526020600020905b81548152906001019060200180831161225257829003601f168201915b505050505081565b60035481565b6000600560008373ffffffffffffffffffffffffffffffffffffffff1673ffffffffffffffffffffffffffffffffffffffff16815260200190815260200160002060020160009054906101000a900460ff169050919050565b6000600760008773ffffffffffffffffffffffffffffffffffffffff1673ffffffffffffffffffffffffffffffffffffffff1681526020019081526020016000208054612322906137c5565b905014612364576040517f08c379a000000000000000000000000000000000000000000000000000000000815260040161235b90613da6565b60405180910390fd5b60006008856040516123769190613832565b90815260200160405180910390206000018054612392906137c5565b9050146123d4576040517f08c379a00000000000000000000000000000000000000000000000000000000081526004016123cb90613e38565b60405180910390fd5b83600760008773ffffffffffffffffffffffffffffffffffffffff1673ffffffffffffffffffffffffffffffffffffffff16815260200190815260200160002090816124209190613ad8565b50600061244260046000815480929190612439906138e4565b91905055612bd6565b9050806009866040516124559190613832565b9081526020016040518091039020908161246f9190613ad8565b506040518060a00160405280828152602001868152602001858152602001848152602001838152506008866040516124a79190613832565b908152602001604051809103902060008201518160000190816124ca9190613ad8565b5060208201518160010190816124e09190613ad8565b5060408201518160020190816124f69190613ad8565b50606082015181600301908161250c9190613ad8565b5060808201518160040155905050505050505050565b600c8180516020810182018051848252602083016020850120818352809550505050505060009150905080600001805461255b906137c5565b80601f0160208091040260200160405190810160405280929190818152602001828054612587906137c5565b80156125d45780601f106125a9576101008083540402835291602001916125d4565b820191906000526020600020905b8154815290600101906020018083116125b757829003601f168201915b5050505050908060010180546125e9906137c5565b80601f0160208091040260200160405190810160405280929190818152602001828054612615906137c5565b80156126625780601f1061263757610100808354040283529160200191612662565b820191906000526020600020905b81548152906001019060200180831161264557829003601f168201915b505050505090806002018054612677906137c5565b80601f01602080910402602001604051908101604052809291908181526020018280546126a3906137c5565b80156126f05780601f106126c5576101008083540402835291602001916126f0565b820191906000526020600020905b8154815290600101906020018083116126d357829003601f168201915b505050505090806003018054612705906137c5565b80601f0160208091040260200160405190810160405280929190818152602001828054612731906137c5565b801561277e5780601f106127535761010080835404028352916020019161277e565b820191906000526020600020905b81548152906001019060200180831161276157829003601f168201915b505050505090806004018054612793906137c5565b80601f01602080910402602001604051908101604052809291908181526020018280546127bf906137c5565b801561280c5780601f106127e15761010080835404028352916020019161280c565b820191906000526020600020905b8154815290600101906020018083116127ef57829003601f168201915b5050505050905085565b600b818051602081018201805184825260208301602085012081835280955050505050506000915054906101000a900473ffffffffffffffffffffffffffffffffffffffff1681565b600d818051602081018201805184825260208301602085012081835280955050505050506000915090508054612894906137c5565b80601f01602080910402602001604051908101604052809291908181526020018280546128c0906137c5565b801561290d5780601f106128e25761010080835404028352916020019161290d565b820191906000526020600020905b8154815290600101906020018083116128f057829003601f168201915b505050505081565b600560205280600052604060002060009150905080600001549080600101805461293e906137c5565b80601f016020809104026020016040519081016040528092919081815260200182805461296a906137c5565b80156129b75780601f1061298c576101008083540402835291602001916129b7565b820191906000526020600020905b81548152906001019060200180831161299a57829003601f168201915b5050505050908060020160009054906101000a900460ff16905083565b606060008203612a1b576040518060400160405280600181526020017f30000000000000000000000000000000000000000000000000000000000000008152509050612b2f565b600082905060005b60008214612a4d578080612a36906138e4565b915050600a82612a469190613e87565b9150612a23565b60008167ffffffffffffffff811115612a6957612a68612ca7565b5b6040519080825280601f01601f191660200182016040528015612a9b5781602001600182028036833780820191505090505b5090505b60008514612b2857600182612ab49190613eb8565b9150600a85612ac39190613eec565b6030612acf9190613f1d565b60f81b818381518110612ae557612ae4613f51565b5b60200101907effffffffffffffffffffffffffffffffffffffffffffffffffffffffffffff1916908160001a905350600a85612b219190613e87565b9450612a9f565b8093505050505b919050565b6060600a821015612b6e57612b48826129d4565b604051602001612b589190613fcc565b6040516020818303038152906040529050612bd1565b6064821015612ba657612b80826129d4565b604051602001612b90919061403a565b6040516020818303038152906040529050612bd1565b612baf826129d4565b604051602001612bbf91906140a8565b60405160208183030381529060405290505b919050565b6060600a821015612c1057612bea826129d4565b604051602001612bfa9190614116565b6040516020818303038152906040529050612c73565b6064821015612c4857612c22826129d4565b604051602001612c329190614184565b6040516020818303038152906040529050612c73565b612c51826129d4565b604051602001612c6191906141f2565b60405160208183030381529060405290505b919050565b6000604051905090565b600080fd5b600080fd5b600080fd5b600080fd5b6000601f19601f8301169050919050565b7f4e487b7100000000000000000000000000000000000000000000000000000000600052604160045260246000fd5b612cdf82612c96565b810181811067ffffffffffffffff82111715612cfe57612cfd612ca7565b5b80604052505050565b6000612d11612c78565b9050612d1d8282612cd6565b919050565b600067ffffffffffffffff821115612d3d57612d3c612ca7565b5b612d4682612c96565b9050602081019050919050565b82818337600083830152505050565b6000612d75612d7084612d22565b612d07565b905082815260208101848484011115612d9157612d90612c91565b5b612d9c848285612d53565b509392505050565b600082601f830112612db957612db8612c8c565b5b8135612dc9848260208601612d62565b91505092915050565b60008060008060808587031215612dec57612deb612c82565b5b600085013567ffffffffffffffff811115612e0a57612e09612c87565b5b612e1687828801612da4565b945050602085013567ffffffffffffffff811115612e3757612e36612c87565b5b612e4387828801612da4565b935050604085013567ffffffffffffffff811115612e6457612e63612c87565b5b612e7087828801612da4565b925050606085013567ffffffffffffffff811115612e9157612e90612c87565b5b612e9d87828801612da4565b91505092959194509250565b600060208284031215612ebf57612ebe612c82565b5b600082013567ffffffffffffffff811115612edd57612edc612c87565b5b612ee984828501612da4565b91505092915050565b600081519050919050565b600082825260208201905092915050565b60005b83811015612f2c578082015181840152602081019050612f11565b60008484015250505050565b6000612f4382612ef2565b612f4d8185612efd565b9350612f5d818560208601612f0e565b612f6681612c96565b840191505092915050565b6000819050919050565b612f8481612f71565b82525050565b600060a0820190508181036000830152612fa48188612f38565b90508181036020830152612fb88187612f38565b90508181036040830152612fcc8186612f38565b90508181036060830152612fe08185612f38565b9050612fef6080830184612f7b565b9695505050505050565b61300281612f71565b811461300d57600080fd5b50565b60008135905061301f81612ff9565b92915050565b6000806040838503121561303c5761303b612c82565b5b600083013567ffffffffffffffff81111561305a57613059612c87565b5b61306685828601612da4565b925050602061307785828601613010565b9150509250929050565b600060e082019050613096600083018a612f7b565b81810360208301526130a88189612f38565b905081810360408301526130bc8188612f38565b905081810360608301526130d08187612f38565b905081810360808301526130e48186612f38565b905081810360a08301526130f88185612f38565b905081810360c083015261310c8184612f38565b905098975050505050505050565b600060808201905081810360008301526131348187612f38565b905081810360208301526131488186612f38565b9050818103604083015261315c8185612f38565b905081810360608301526131708184612f38565b905095945050505050565b60006020820190506131906000830184612f7b565b92915050565b600081519050919050565b600082825260208201905092915050565b6000819050602082019050919050565b6131cb81612f71565b82525050565b600082825260208201905092915050565b60006131ed82612ef2565b6131f781856131d1565b9350613207818560208601612f0e565b61321081612c96565b840191505092915050565b600060e08301600083015161323360008601826131c2565b506020830151848203602086015261324b82826131e2565b9150506040830151848203604086015261326582826131e2565b9150506060830151848203606086015261327f82826131e2565b9150506080830151848203608086015261329982826131e2565b91505060a083015184820360a08601526132b382826131e2565b91505060c083015184820360c08601526132cd82826131e2565b9150508091505092915050565b60006132e6838361321b565b905092915050565b6000602082019050919050565b600061330682613196565b61331081856131a1565b935083602082028501613322856131b2565b8060005b8581101561335e578484038952815161333f85826132da565b945061334a836132ee565b925060208a01995050600181019050613326565b50829750879550505050505092915050565b6000602082019050818103600083015261338a81846132fb565b905092915050565b60008115159050919050565b6133a781613392565b82525050565b60006020820190506133c2600083018461339e565b92915050565b600073ffffffffffffffffffffffffffffffffffffffff82169050919050565b60006133f3826133c8565b9050919050565b613403816133e8565b811461340e57600080fd5b50565b600081359050613420816133fa565b92915050565b6000806040838503121561343d5761343c612c82565b5b600061344b85828601613411565b925050602083013567ffffffffffffffff81111561346c5761346b612c87565b5b61347885828601612da4565b9150509250929050565b60006020828403121561349857613497612c82565b5b60006134a684828501613411565b91505092915050565b600060208201905081810360008301526134c98184612f38565b905092915050565b6000602082840312156134e7576134e6612c82565b5b60006134f584828501613010565b91505092915050565b613507816133e8565b82525050565b600060208201905061352260008301846134fe565b92915050565b600080600080600060a0868803121561354457613543612c82565b5b600061355288828901613411565b955050602086013567ffffffffffffffff81111561357357613572612c87565b5b61357f88828901612da4565b945050604086013567ffffffffffffffff8111156135a05761359f612c87565b5b6135ac88828901612da4565b935050606086013567ffffffffffffffff8111156135cd576135cc612c87565b5b6135d988828901612da4565b925050608086013567ffffffffffffffff8111156135fa576135f9612c87565b5b61360688828901612da4565b9150509295509295909350565b600080600080600060a0868803121561362f5761362e612c82565b5b600061363d88828901613411565b955050602086013567ffffffffffffffff81111561365e5761365d612c87565b5b61366a88828901612da4565b945050604086013567ffffffffffffffff81111561368b5761368a612c87565b5b61369788828901612da4565b935050606086013567ffffffffffffffff8111156136b8576136b7612c87565b5b6136c488828901612da4565b92505060806136d588828901613010565b9150509295509295909350565b600060a08201905081810360008301526136fc8188612f38565b905081810360208301526137108187612f38565b905081810360408301526137248186612f38565b905081810360608301526137388185612f38565b9050818103608083015261374c8184612f38565b90509695505050505050565b600060608201905061376d6000830186612f7b565b818103602083015261377f8185612f38565b905061378e604083018461339e565b949350505050565b7f4e487b7100000000000000000000000000000000000000000000000000000000600052602260045260246000fd5b600060028204905060018216806137dd57607f821691505b6020821081036137f0576137ef613796565b5b50919050565b600081905092915050565b600061380c82612ef2565b61381681856137f6565b9350613826818560208601612f0e565b80840191505092915050565b600061383e8284613801565b915081905092915050565b7f50617469656e74206e6f74207265676973746572656400000000000000000000600082015250565b600061387f601683612efd565b915061388a82613849565b602082019050919050565b600060208201905081810360008301526138ae81613872565b9050919050565b7f4e487b7100000000000000000000000000000000000000000000000000000000600052601160045260246000fd5b60006138ef82612f71565b91507fffffffffffffffffffffffffffffffffffffffffffffffffffffffffffffffff8203613921576139206138b5565b5b600182019050919050565b60008190508160005260206000209050919050565b60006020601f8301049050919050565b600082821b905092915050565b60006008830261398e7fffffffffffffffffffffffffffffffffffffffffffffffffffffffffffffffff82613951565b6139988683613951565b95508019841693508086168417925050509392505050565b6000819050919050565b60006139d56139d06139cb84612f71565b6139b0565b612f71565b9050919050565b6000819050919050565b6139ef836139ba565b613a036139fb826139dc565b84845461395e565b825550505050565b600090565b613a18613a0b565b613a238184846139e6565b505050565b5b81811015613a4757613a3c600082613a10565b600181019050613a29565b5050565b601f821115613a8c57613a5d8161392c565b613a6684613941565b81016020851015613a75578190505b613a89613a8185613941565b830182613a28565b50505b505050565b600082821c905092915050565b6000613aaf60001984600802613a91565b1980831691505092915050565b6000613ac88383613a9e565b9150826002028217905092915050565b613ae182612ef2565b67ffffffffffffffff811115613afa57613af9612ca7565b5b613b0482546137c5565b613b0f828285613a4b565b600060209050601f831160018114613b425760008415613b30578287015190505b613b3a8582613abc565b865550613ba2565b601f198416613b508661392c565b60005b82811015613b7857848901518255600182019150602085019450602081019050613b53565b86831015613b955784890151613b91601f891682613a9e565b8355505b6001600288020188555050505b505050505050565b7f4e6f742072656769737465726564000000000000000000000000000000000000600082015250565b6000613be0600e83612efd565b9150613beb82613baa565b602082019050919050565b60006020820190508181036000830152613c0f81613bd3565b9050919050565b7f416c726561647920726567697374657265640000000000000000000000000000600082015250565b6000613c4c601283612efd565b9150613c5782613c16565b602082019050919050565b60006020820190508181036000830152613c7b81613c3f565b9050919050565b7f4161646861617220616c72656164792072656769737465726564000000000000600082015250565b6000613cb8601a83612efd565b9150613cc382613c82565b602082019050919050565b60006020820190508181036000830152613ce781613cab565b9050919050565b7f57616c6c657420616c7265616479207573656400000000000000000000000000600082015250565b6000613d24601383612efd565b9150613d2f82613cee565b602082019050919050565b60006020820190508181036000830152613d5381613d17565b9050919050565b7f446f63746f7220616c7265616479207265676973746572656400000000000000600082015250565b6000613d90601983612efd565b9150613d9b82613d5a565b602082019050919050565b60006020820190508181036000830152613dbf81613d83565b9050919050565b7f4c6963656e7365206e756d62657220616c72656164792072656769737465726560008201527f6400000000000000000000000000000000000000000000000000000000000000602082015250565b6000613e22602183612efd565b9150613e2d82613dc6565b604082019050919050565b60006020820190508181036000830152613e5181613e15565b9050919050565b7f4e487b7100000000000000000000000000000000000000000000000000000000600052601260045260246000fd5b6000613e9282612f71565b9150613e9d83612f71565b925082613ead57613eac613e58565b5b828204905092915050565b6000613ec382612f71565b9150613ece83612f71565b9250828203905081811115613ee657613ee56138b5565b5b92915050565b6000613ef782612f71565b9150613f0283612f71565b925082613f1257613f11613e58565b5b828206905092915050565b6000613f2882612f71565b9150613f3383612f71565b9250828201905080821115613f4b57613f4a6138b5565b5b92915050565b7f4e487b7100000000000000000000000000000000000000000000000000000000600052603260045260246000fd5b7f5030300000000000000000000000000000000000000000000000000000000000600082015250565b6000613fb66003836137f6565b9150613fc182613f80565b600382019050919050565b6000613fd782613fa9565b9150613fe38284613801565b915081905092915050565b7f5030000000000000000000000000000000000000000000000000000000000000600082015250565b60006140246002836137f6565b915061402f82613fee565b600282019050919050565b600061404582614017565b91506140518284613801565b915081905092915050565b7f5000000000000000000000000000000000000000000000000000000000000000600082015250565b60006140926001836137f6565b915061409d8261405c565b600182019050919050565b60006140b382614085565b91506140bf8284613801565b915081905092915050565b7f4430300000000000000000000000000000000000000000000000000000000000600082015250565b60006141006003836137f6565b915061410b826140ca565b600382019050919050565b6000614121826140f3565b915061412d8284613801565b915081905092915050565b7f4430000000000000000000000000000000000000000000000000000000000000600082015250565b600061416e6002836137f6565b915061417982614138565b600282019050919050565b600061418f82614161565b915061419b8284613801565b915081905092915050565b7f4400000000000000000000000000000000000000000000000000000000000000600082015250565b60006141dc6001836137f6565b91506141e7826141a6565b600182019050919050565b60006141fd826141cf565b91506142098284613801565b91508190509291505056fea264697066735822122039b6fbe01fe422419b102b42877d56f9f0409dca7821694f9c357b5726d0a9b964736f6c63430008180033",
  "devdoc": {
    "kind": "dev",
    "methods": {},
    "version": 1
  },
  "userdoc": {
    "kind": "user",
    "methods": {},
    "version": 1
  },
  "storageLayout": {
    "storage": [
      {
        "astId": 9,
        "contract": "contracts/Medlock.sol:Medlock",
        "label": "owner",
        "offset": 0,
        "slot": "0",
        "type": "t_address"
      },
      {
        "astId": 12,
        "contract": "contracts/Medlock.sol:Medlock",
        "label": "nextHospitalId",
        "offset": 0,
        "slot": "1",
        "type": "t_uint256"
      },
      {
        "astId": 15,
        "contract": "contracts/Medlock.sol:Medlock",
        "label": "nextPrescriptionId",
        "offset": 0,
        "slot": "2",
        "type": "t_uint256"
      },
      {
        "astId": 18,
        "contract": "contracts/Medlock.sol:Medlock",
        "label": "nextPatientId",
        "offset": 0,
        "slot": "3",
        "type": "t_uint256"
      },
      {
        "astId": 21,
        "contract": "contracts/Medlock.sol:Medlock",
        "label": "nextDoctorId",
        "offset": 0,
        "slot": "4",
        "type": "t_uint256"
      },
      {
        "astId": 129,
        "contract": "contracts/Medlock.sol:Medlock",
        "label": "hospitals",
        "offset": 0,
        "slot": "5",
        "type": "t_mapping(t_address,t_struct(Hospital)87_storage)"
      },
      {
        "astId": 133,
        "contract": "contracts/Medlock.sol:Medlock",
        "label": "hospitalById",
        "offset": 0,
        "slot": "6",
        "type": "t_mapping(t_uint256,t_address)"
      },
      {
        "astId": 137,
        "contract": "contracts/Medlock.sol:Medlock",
        "label": "doctorLicenses",
        "offset": 0,
        "slot": "7",
        "type": "t_mapping(t_address,t_string_storage)"
      },
      {
        "astId": 142,
        "contract": "contracts/Medlock.sol:Medlock",
        "label": "doctors",
        "offset": 0,
        "slot": "8",
        "type": "t_mapping(t_string_memory_ptr,t_struct(Doctor)98_storage)"
      },
      {
        "astId": 146,
        "contract": "contracts/Medlock.sol:Medlock",
        "label": "licenseToDoctorId",
        "offset": 0,
        "slot": "9",
        "type": "t_mapping(t_string_memory_ptr,t_string_storage)"
      },
      {
        "astId": 150,
        "contract": "contracts/Medlock.sol:Medlock",
        "label": "patientAadhaars",
        "offset": 0,
        "slot": "10",
        "type": "t_mapping(t_address,t_string_storage)"
      },
      {
        "astId": 154,
        "contract": "contracts/Medlock.sol:Medlock",
        "label": "aadhaarToAddress",
        "offset": 0,
        "slot": "11",
        "type": "t_mapping(t_string_memory_ptr,t_address)"
      },
      {
        "astId": 159,
        "contract": "contracts/Medlock.sol:Medlock",
        "label": "patients",
        "offset": 0,
        "slot": "12",
        "type": "t_mapping(t_string_memory_ptr,t_struct(Patient)109_storage)"
      },
      {
        "astId": 163,
        "contract": "contracts/Medlock.sol:Medlock",
        "label": "aadhaarToPatientId",
        "offset": 0,
        "slot": "13",
        "type": "t_mapping(t_string_memory_ptr,t_string_storage)"
      },
      {
        "astId": 169,
        "contract": "contracts/Medlock.sol:Medlock",
        "label": "prescriptions",
        "offset": 0,
        "slot": "14",
        "type": "t_mapping(t_string_memory_ptr,t_array(t_struct(Prescription)124_storage)dyn_storage)"
      }
    ],
    "types": {
      "t_address": {
        "encoding": "inplace",
        "label": "address",
        "numberOfBytes": "20"
      },
      "t_array(t_struct(Prescription)124_storage)dyn_storage": {
        "base": "t_struct(Prescription)124_storage",
        "encoding": "dynamic_array",
        "label": "struct Medlock.Prescription[]",
        "numberOfBytes": "32"
      },
      "t_bool": {
        "encoding": "inplace",
        "label": "bool",
        "numberOfBytes": "1"
      },
      "t_mapping(t_address,t_string_storage)": {
        "encoding": "mapping",
        "key": "t_address",
        "label": "mapping(address => string)",
        "numberOfBytes": "32",
        "value": "t_string_storage"
      },
      "t_mapping(t_address,t_struct(Hospital)87_storage)": {
        "encoding": "mapping",
        "key": "t_address",
        "label": "mapping(address => struct Medlock.Hospital)",
        "numberOfBytes": "32",
        "value": "t_struct(Hospital)87_storage"
      },
      "t_mapping(t_string_memory_ptr,t_address)": {
        "encoding": "mapping",
        "key": "t_string_memory_ptr",
        "label": "mapping(string => address)",
        "numberOfBytes": "32",
        "value": "t_address"
      },
      "t_mapping(t_string_memory_ptr,t_array(t_struct(Prescription)124_storage)dyn_storage)": {
        "encoding": "mapping",
        "key": "t_string_memory_ptr",
        "label": "mapping(string => struct Medlock.Prescription[])",
        "numberOfBytes": "32",
        "value": "t_array(t_struct(Prescription)124_storage)dyn_storage"
      },
      "t_mapping(t_string_memory_ptr,t_string_storage)": {
        "encoding": "mapping",
        "key": "t_string_memory_ptr",
        "label": "mapping(string => string)",
        "numberOfBytes": "32",
        "value": "t_string_storage"
      },
      "t_mapping(t_string_memory_ptr,t_struct(Doctor)98_storage)": {
        "encoding": "mapping",
        "key": "t_string_memory_ptr",
        "label": "mapping(string => struct Medlock.Doctor)",
        "numberOfBytes": "32",
        "value": "t_struct(Doctor)98_storage"
      },
      "t_mapping(t_string_memory_ptr,t_struct(Patient)109_storage)": {
        "encoding": "mapping",
        "key": "t_string_memory_ptr",
        "label": "mapping(string => struct Medlock.Patient)",
        "numberOfBytes": "32",
        "value": "t_struct(Patient)109_storage"
      },
      "t_mapping(t_uint256,t_address)": {
        "encoding": "mapping",
        "key": "t_uint256",
        "label": "mapping(uint256 => address)",
        "numberOfBytes": "32",
        "value": "t_address"
      },
      "t_string_memory_ptr": {
        "encoding": "bytes",
        "label": "string",
        "numberOfBytes": "32"
      },
      "t_string_storage": {
        "encoding": "bytes",
        "label": "string",
        "numberOfBytes": "32"
      },
      "t_struct(Doctor)98_storage": {
        "encoding": "inplace",
        "label": "struct Medlock.Doctor",
        "members": [
          {
            "astId": 89,
            "contract": "contracts/Medlock.sol:Medlock",
            "label": "doctorId",
            "offset": 0,
            "slot": "0",
            "type": "t_string_storage"
          },
          {
            "astId": 91,
            "contract": "contracts/Medlock.sol:Medlock",
            "label": "licenseNumber",
            "offset": 0,
            "slot": "1",
            "type": "t_string_storage"
          },
          {
            "astId": 93,
            "contract": "contracts/Medlock.sol:Medlock",
            "label": "name",
            "offset": 0,
            "slot": "2",
            "type": "t_string_storage"
          },
          {
            "astId": 95,
            "contract": "contracts/Medlock.sol:Medlock",
            "label": "specialization",
            "offset": 0,
            "slot": "3",
            "type": "t_string_storage"
          },
          {
            "astId": 97,
            "contract": "contracts/Medlock.sol:Medlock",
            "label": "hospitalId",
            "offset": 0,
            "slot": "4",
            "type": "t_uint256"
          }
        ],
        "numberOfBytes": "160"
      },
      "t_struct(Hospital)87_storage": {
        "encoding": "inplace",
        "label": "struct Medlock.Hospital",
        "members": [
          {
            "astId": 82,
            "contract": "contracts/Medlock.sol:Medlock",
            "label": "hospitalId",
            "offset": 0,
            "slot": "0",
            "type": "t_uint256"
          },
          {
            "astId": 84,
            "contract": "contracts/Medlock.sol:Medlock",
            "label": "name",
            "offset": 0,
            "slot": "1",
            "type": "t_string_storage"
          },
          {
            "astId": 86,
            "contract": "contracts/Medlock.sol:Medlock",
            "label": "isRegistered",
            "offset": 0,
            "slot": "2",
            "type": "t_bool"
          }
        ],
        "numberOfBytes": "96"
      },
      "t_struct(Patient)109_storage": {
        "encoding": "inplace",
        "label": "struct Medlock.Patient",
        "members": [
          {
            "astId": 100,
            "contract": "contracts/Medlock.sol:Medlock",
            "label": "patientId",
            "offset": 0,
            "slot": "0",
            "type": "t_string_storage"
          },
          {
            "astId": 102,
            "contract": "contracts/Medlock.sol:Medlock",
            "label": "aadhaar",
            "offset": 0,
            "slot": "1",
            "type": "t_string_storage"
          },
          {
            "astId": 104,
            "contract": "contracts/Medlock.sol:Medlock",
            "label": "name",
            "offset": 0,
            "slot": "2",
            "type": "t_string_storage"
          },
          {
            "astId": 106,
            "contract": "contracts/Medlock.sol:Medlock",
            "label": "dob",
            "offset": 0,
            "slot": "3",
            "type": "t_string_storage"
          },
          {
            "astId": 108,
            "contract": "contracts/Medlock.sol:Medlock",
            "label": "contactDetails",
            "offset": 0,
            "slot": "4",
            "type": "t_string_storage"
          }
        ],
        "numberOfBytes": "160"
      },
      "t_struct(Prescription)124_storage": {
        "encoding": "inplace",
        "label": "struct Medlock.Prescription",
        "members": [
          {
            "astId": 111,
            "contract": "contracts/Medlock.sol:Medlock",
            "label": "prescriptionId",
            "offset": 0,
            "slot": "0",
            "type": "t_uint256"
          },
          {
            "astId": 113,
            "contract": "contracts/Medlock.sol:Medlock",
            "label": "patientId",
            "offset": 0,
            "slot": "1",
            "type": "t_string_storage"
          },
          {
            "astId": 115,
            "contract": "contracts/Medlock.sol:Medlock",
            "label": "doctorId",
            "offset": 0,
            "slot": "2",
            "type": "t_string_storage"
          },
          {
            "astId": 117,
            "contract": "contracts/Medlock.sol:Medlock",
            "label": "issueDate",
            "offset": 0,
            "slot": "3",
            "type": "t_string_storage"
          },
          {
            "astId": 119,
            "contract": "contracts/Medlock.sol:Medlock",
            "label": "diagnosis",
            "offset": 0,
            "slot": "4",
            "type": "t_string_storage"
          },
          {
            "astId": 121,
            "contract": "contracts/Medlock.sol:Medlock",
            "label": "treatment",
            "offset": 0,
            "slot": "5",
            "type": "t_string_storage"
          },
          {
            "astId": 123,
            "contract": "contracts/Medlock.sol:Medlock",
            "label": "remarks",
            "offset": 0,
            "slot": "6",
            "type": "t_string_storage"
          }
        ],
        "numberOfBytes": "224"
      },
      "t_uint256": {
        "encoding": "inplace",
        "label": "uint256",
        "numberOfBytes": "32"
      }
    }
  }
}